{
  "_format": "hh-sol-artifact-1",
  "contractName": "EvangeryptToken",
  "sourceName": "contracts/EvangeryptToken.sol",
  "abi": [
    {
      "inputs": [],
      "stateMutability": "nonpayable",
      "type": "constructor"
    },
    {
      "anonymous": false,
      "inputs": [
        {
          "indexed": true,
          "internalType": "address",
          "name": "owner",
          "type": "address"
        },
        {
          "indexed": true,
          "internalType": "address",
          "name": "approved",
          "type": "address"
        },
        {
          "indexed": true,
          "internalType": "uint256",
          "name": "tokenId",
          "type": "uint256"
        }
      ],
      "name": "Approval",
      "type": "event"
    },
    {
      "anonymous": false,
      "inputs": [
        {
          "indexed": true,
          "internalType": "address",
          "name": "owner",
          "type": "address"
        },
        {
          "indexed": true,
          "internalType": "address",
          "name": "operator",
          "type": "address"
        },
        {
          "indexed": false,
          "internalType": "bool",
          "name": "approved",
          "type": "bool"
        }
      ],
      "name": "ApprovalForAll",
      "type": "event"
    },
    {
      "anonymous": false,
      "inputs": [
        {
          "indexed": true,
          "internalType": "address",
          "name": "previousOwner",
          "type": "address"
        },
        {
          "indexed": true,
          "internalType": "address",
          "name": "newOwner",
          "type": "address"
        }
      ],
      "name": "OwnershipTransferred",
      "type": "event"
    },
    {
      "anonymous": false,
      "inputs": [
        {
          "indexed": true,
          "internalType": "address",
          "name": "from",
          "type": "address"
        },
        {
          "indexed": true,
          "internalType": "address",
          "name": "to",
          "type": "address"
        },
        {
          "indexed": true,
          "internalType": "uint256",
          "name": "tokenId",
          "type": "uint256"
        }
      ],
      "name": "Transfer",
      "type": "event"
    },
    {
      "inputs": [
        {
          "internalType": "address",
          "name": "to",
          "type": "address"
        },
        {
          "internalType": "uint256",
          "name": "tokenId",
          "type": "uint256"
        }
      ],
      "name": "approve",
      "outputs": [],
      "stateMutability": "nonpayable",
      "type": "function"
    },
    {
      "inputs": [
        {
          "internalType": "address",
          "name": "owner",
          "type": "address"
        }
      ],
      "name": "balanceOf",
      "outputs": [
        {
          "internalType": "uint256",
          "name": "",
          "type": "uint256"
        }
      ],
      "stateMutability": "view",
      "type": "function"
    },
    {
      "inputs": [
        {
          "internalType": "uint256",
          "name": "",
          "type": "uint256"
        }
      ],
      "name": "balancePerToken",
      "outputs": [
        {
          "internalType": "uint256",
          "name": "",
          "type": "uint256"
        }
      ],
      "stateMutability": "view",
      "type": "function"
    },
    {
      "inputs": [
        {
          "internalType": "uint256",
          "name": "tokenId",
          "type": "uint256"
        }
      ],
      "name": "burn",
      "outputs": [],
      "stateMutability": "nonpayable",
      "type": "function"
    },
    {
      "inputs": [
        {
          "internalType": "uint256",
          "name": "",
          "type": "uint256"
        }
      ],
      "name": "distributeNumPerToken",
      "outputs": [
        {
          "internalType": "uint256",
          "name": "",
          "type": "uint256"
        }
      ],
      "stateMutability": "view",
      "type": "function"
    },
    {
      "inputs": [
        {
          "internalType": "uint256",
          "name": "tokenId",
          "type": "uint256"
        }
      ],
      "name": "donateToToken",
      "outputs": [],
      "stateMutability": "payable",
      "type": "function"
    },
    {
      "inputs": [
        {
          "internalType": "uint256",
          "name": "tokenId",
          "type": "uint256"
        }
      ],
      "name": "estimateEarn",
      "outputs": [
        {
          "internalType": "uint256",
          "name": "",
          "type": "uint256"
        }
      ],
      "stateMutability": "view",
      "type": "function"
    },
    {
      "inputs": [
        {
          "internalType": "uint256",
          "name": "tokenId",
          "type": "uint256"
        }
      ],
      "name": "getApproved",
      "outputs": [
        {
          "internalType": "address",
          "name": "",
          "type": "address"
        }
      ],
      "stateMutability": "view",
      "type": "function"
    },
    {
      "inputs": [],
      "name": "getBalance",
      "outputs": [
        {
          "internalType": "uint256",
          "name": "",
          "type": "uint256"
        }
      ],
      "stateMutability": "view",
      "type": "function"
    },
    {
      "inputs": [
        {
          "internalType": "uint256",
          "name": "tokenId",
          "type": "uint256"
        }
      ],
      "name": "getBalanceOfToken",
      "outputs": [
        {
          "internalType": "uint256",
          "name": "",
          "type": "uint256"
        }
      ],
      "stateMutability": "view",
      "type": "function"
    },
    {
      "inputs": [
        {
          "internalType": "address",
          "name": "owner",
          "type": "address"
        },
        {
          "internalType": "address",
          "name": "operator",
          "type": "address"
        }
      ],
      "name": "isApprovedForAll",
      "outputs": [
        {
          "internalType": "bool",
          "name": "",
          "type": "bool"
        }
      ],
      "stateMutability": "view",
      "type": "function"
    },
    {
      "inputs": [],
      "name": "name",
      "outputs": [
        {
          "internalType": "string",
          "name": "",
          "type": "string"
        }
      ],
      "stateMutability": "view",
      "type": "function"
    },
    {
      "inputs": [],
      "name": "owner",
      "outputs": [
        {
          "internalType": "address",
          "name": "",
          "type": "address"
        }
      ],
      "stateMutability": "view",
      "type": "function"
    },
    {
      "inputs": [
        {
          "internalType": "uint256",
          "name": "tokenId",
          "type": "uint256"
        }
      ],
      "name": "ownerOf",
      "outputs": [
        {
          "internalType": "address",
          "name": "",
          "type": "address"
        }
      ],
      "stateMutability": "view",
      "type": "function"
    },
    {
      "inputs": [],
      "name": "renounceOwnership",
      "outputs": [],
      "stateMutability": "nonpayable",
      "type": "function"
    },
    {
      "inputs": [
        {
          "internalType": "address",
          "name": "to",
          "type": "address"
        },
        {
          "internalType": "string",
          "name": "uri",
          "type": "string"
        },
        {
          "internalType": "uint256",
          "name": "distributeNum",
          "type": "uint256"
        }
      ],
      "name": "safeMint",
      "outputs": [],
      "stateMutability": "payable",
      "type": "function"
    },
    {
      "inputs": [
        {
          "internalType": "address",
          "name": "from",
          "type": "address"
        },
        {
          "internalType": "address",
          "name": "to",
          "type": "address"
        },
        {
          "internalType": "uint256",
          "name": "tokenId",
          "type": "uint256"
        }
      ],
      "name": "safeTransferFrom",
      "outputs": [],
      "stateMutability": "nonpayable",
      "type": "function"
    },
    {
      "inputs": [
        {
          "internalType": "address",
          "name": "from",
          "type": "address"
        },
        {
          "internalType": "address",
          "name": "to",
          "type": "address"
        },
        {
          "internalType": "uint256",
          "name": "tokenId",
          "type": "uint256"
        },
        {
          "internalType": "bytes",
          "name": "data",
          "type": "bytes"
        }
      ],
      "name": "safeTransferFrom",
      "outputs": [],
      "stateMutability": "nonpayable",
      "type": "function"
    },
    {
      "inputs": [
        {
          "internalType": "address",
          "name": "operator",
          "type": "address"
        },
        {
          "internalType": "bool",
          "name": "approved",
          "type": "bool"
        }
      ],
      "name": "setApprovalForAll",
      "outputs": [],
      "stateMutability": "nonpayable",
      "type": "function"
    },
    {
      "inputs": [
        {
          "internalType": "uint256",
          "name": "tokenId",
          "type": "uint256"
        },
        {
          "internalType": "uint256",
          "name": "num",
          "type": "uint256"
        }
      ],
      "name": "setDistoributeNum",
      "outputs": [],
      "stateMutability": "nonpayable",
      "type": "function"
    },
    {
      "inputs": [
        {
          "internalType": "bytes4",
          "name": "interfaceId",
          "type": "bytes4"
        }
      ],
      "name": "supportsInterface",
      "outputs": [
        {
          "internalType": "bool",
          "name": "",
          "type": "bool"
        }
      ],
      "stateMutability": "view",
      "type": "function"
    },
    {
      "inputs": [],
      "name": "symbol",
      "outputs": [
        {
          "internalType": "string",
          "name": "",
          "type": "string"
        }
      ],
      "stateMutability": "view",
      "type": "function"
    },
    {
      "inputs": [
        {
          "internalType": "uint256",
          "name": "index",
          "type": "uint256"
        }
      ],
      "name": "tokenByIndex",
      "outputs": [
        {
          "internalType": "uint256",
          "name": "",
          "type": "uint256"
        }
      ],
      "stateMutability": "view",
      "type": "function"
    },
    {
      "inputs": [
        {
          "internalType": "address",
          "name": "owner",
          "type": "address"
        },
        {
          "internalType": "uint256",
          "name": "index",
          "type": "uint256"
        }
      ],
      "name": "tokenOfOwnerByIndex",
      "outputs": [
        {
          "internalType": "uint256",
          "name": "",
          "type": "uint256"
        }
      ],
      "stateMutability": "view",
      "type": "function"
    },
    {
      "inputs": [
        {
          "internalType": "uint256",
          "name": "tokenId",
          "type": "uint256"
        }
      ],
      "name": "tokenURI",
      "outputs": [
        {
          "internalType": "string",
          "name": "",
          "type": "string"
        }
      ],
      "stateMutability": "view",
      "type": "function"
    },
    {
      "inputs": [
        {
          "internalType": "address",
          "name": "",
          "type": "address"
        },
        {
          "internalType": "uint256",
          "name": "",
          "type": "uint256"
        }
      ],
      "name": "tokenWithdrawed",
      "outputs": [
        {
          "internalType": "uint256",
          "name": "",
          "type": "uint256"
        }
      ],
      "stateMutability": "view",
      "type": "function"
    },
    {
      "inputs": [],
      "name": "totalSupply",
      "outputs": [
        {
          "internalType": "uint256",
          "name": "",
          "type": "uint256"
        }
      ],
      "stateMutability": "view",
      "type": "function"
    },
    {
      "inputs": [
        {
          "internalType": "address",
          "name": "from",
          "type": "address"
        },
        {
          "internalType": "address",
          "name": "to",
          "type": "address"
        },
        {
          "internalType": "uint256",
          "name": "tokenId",
          "type": "uint256"
        }
      ],
      "name": "transferFrom",
      "outputs": [],
      "stateMutability": "nonpayable",
      "type": "function"
    },
    {
      "inputs": [
        {
          "internalType": "address",
          "name": "newOwner",
          "type": "address"
        }
      ],
      "name": "transferOwnership",
      "outputs": [],
      "stateMutability": "nonpayable",
      "type": "function"
    },
    {
      "inputs": [
        {
          "internalType": "uint256",
          "name": "tokenId",
          "type": "uint256"
        }
      ],
      "name": "withdrawFromToken",
      "outputs": [],
      "stateMutability": "payable",
      "type": "function"
    }
  ],
  "bytecode": "0x60806040523480156200001157600080fd5b506040518060400160405280600f81526020017f4576616e676572797074546f6b656e00000000000000000000000000000000008152506040518060400160405280600381526020017f455654000000000000000000000000000000000000000000000000000000000081525081600090816200008f919062000412565b508060019081620000a1919062000412565b505050620000c4620000b8620000ca60201b60201c565b620000d260201b60201c565b620004f9565b600033905090565b6000600b60009054906101000a900473ffffffffffffffffffffffffffffffffffffffff16905081600b60006101000a81548173ffffffffffffffffffffffffffffffffffffffff021916908373ffffffffffffffffffffffffffffffffffffffff1602179055508173ffffffffffffffffffffffffffffffffffffffff168173ffffffffffffffffffffffffffffffffffffffff167f8be0079c531659141344cd1fd0a4f28419497f9722a3daafe3b4186f6b6457e060405160405180910390a35050565b600081519050919050565b7f4e487b7100000000000000000000000000000000000000000000000000000000600052604160045260246000fd5b7f4e487b7100000000000000000000000000000000000000000000000000000000600052602260045260246000fd5b600060028204905060018216806200021a57607f821691505b60208210810362000230576200022f620001d2565b5b50919050565b60008190508160005260206000209050919050565b60006020601f8301049050919050565b600082821b905092915050565b6000600883026200029a7fffffffffffffffffffffffffffffffffffffffffffffffffffffffffffffffff826200025b565b620002a686836200025b565b95508019841693508086168417925050509392505050565b6000819050919050565b6000819050919050565b6000620002f3620002ed620002e784620002be565b620002c8565b620002be565b9050919050565b6000819050919050565b6200030f83620002d2565b620003276200031e82620002fa565b84845462000268565b825550505050565b600090565b6200033e6200032f565b6200034b81848462000304565b505050565b5b8181101562000373576200036760008262000334565b60018101905062000351565b5050565b601f821115620003c2576200038c8162000236565b62000397846200024b565b81016020851015620003a7578190505b620003bf620003b6856200024b565b83018262000350565b50505b505050565b600082821c905092915050565b6000620003e760001984600802620003c7565b1980831691505092915050565b6000620004028383620003d4565b9150826002028217905092915050565b6200041d8262000198565b67ffffffffffffffff811115620004395762000438620001a3565b5b62000445825462000201565b6200045282828562000377565b600060209050601f8311600181146200048a576000841562000475578287015190505b620004818582620003f4565b865550620004f1565b601f1984166200049a8662000236565b60005b82811015620004c4578489015182556001820191506020850194506020810190506200049d565b86831015620004e45784890151620004e0601f891682620003d4565b8355505b6001600288020188555050505b505050505050565b61462e80620005096000396000f3fe6080604052600436106101cd5760003560e01c80636352211e116100f7578063a186089611610095578063c87b56dd11610064578063c87b56dd146106b6578063e985e9c5146106f3578063eb981fea14610730578063f2fde38b1461074c576101cd565b8063a18608961461061f578063a22cb46514610648578063b88d4fde14610671578063c772745a1461069a576101cd565b8063715018a6116100d1578063715018a6146105965780638da5cb5b146105ad57806390e8e64b146105d857806395d89b41146105f4576101cd565b80636352211e146104df5780636cd232291461051c57806370a0823114610559576101cd565b806323b872dd1161016f5780634420c8701161013e5780634420c870146103eb5780634f6ccce71461042857806354a8e4e2146104655780635e33404c146104a2576101cd565b806323b872dd146103335780632f745c591461035c57806342842e0e1461039957806342966c68146103c2576101cd565b8063095ea7b3116101ab578063095ea7b3146102775780630f185936146102a057806312065fe0146102dd57806318160ddd14610308576101cd565b806301ffc9a7146101d257806306fdde031461020f578063081812fc1461023a575b600080fd5b3480156101de57600080fd5b506101f960048036038101906101f49190612cf1565b610775565b6040516102069190612d39565b60405180910390f35b34801561021b57600080fd5b50610224610787565b6040516102319190612de4565b60405180910390f35b34801561024657600080fd5b50610261600480360381019061025c9190612e3c565b610819565b60405161026e9190612eaa565b60405180910390f35b34801561028357600080fd5b5061029e60048036038101906102999190612ef1565b61085f565b005b3480156102ac57600080fd5b506102c760048036038101906102c29190612e3c565b610976565b6040516102d49190612f40565b60405180910390f35b3480156102e957600080fd5b506102f26109db565b6040516102ff9190612f40565b60405180910390f35b34801561031457600080fd5b5061031d6109e3565b60405161032a9190612f40565b60405180910390f35b34801561033f57600080fd5b5061035a60048036038101906103559190612f5b565b6109f0565b005b34801561036857600080fd5b50610383600480360381019061037e9190612ef1565b610a50565b6040516103909190612f40565b60405180910390f35b3480156103a557600080fd5b506103c060048036038101906103bb9190612f5b565b610af5565b005b3480156103ce57600080fd5b506103e960048036038101906103e49190612e3c565b610b15565b005b3480156103f757600080fd5b50610412600480360381019061040d9190612e3c565b610b71565b60405161041f9190612f40565b60405180910390f35b34801561043457600080fd5b5061044f600480360381019061044a9190612e3c565b610b89565b60405161045c9190612f40565b60405180910390f35b34801561047157600080fd5b5061048c60048036038101906104879190612ef1565b610bfa565b6040516104999190612f40565b60405180910390f35b3480156104ae57600080fd5b506104c960048036038101906104c49190612e3c565b610c1f565b6040516104d69190612f40565b60405180910390f35b3480156104eb57600080fd5b5061050660048036038101906105019190612e3c565b610c37565b6040516105139190612eaa565b60405180910390f35b34801561052857600080fd5b50610543600480360381019061053e9190612e3c565b610ce8565b6040516105509190612f40565b60405180910390f35b34801561056557600080fd5b50610580600480360381019061057b9190612fae565b610d23565b60405161058d9190612f40565b60405180910390f35b3480156105a257600080fd5b506105ab610dda565b005b3480156105b957600080fd5b506105c2610dee565b6040516105cf9190612eaa565b60405180910390f35b6105f260048036038101906105ed9190612e3c565b610e18565b005b34801561060057600080fd5b50610609610e6c565b6040516106169190612de4565b60405180910390f35b34801561062b57600080fd5b5061064660048036038101906106419190612fdb565b610efe565b005b34801561065457600080fd5b5061066f600480360381019061066a9190613047565b610fe0565b005b34801561067d57600080fd5b50610698600480360381019061069391906131bc565b610ff6565b005b6106b460048036038101906106af91906132e0565b611058565b005b3480156106c257600080fd5b506106dd60048036038101906106d89190612e3c565b6110fe565b6040516106ea9190612de4565b60405180910390f35b3480156106ff57600080fd5b5061071a6004803603810190610715919061334f565b611110565b6040516107279190612d39565b60405180910390f35b61074a60048036038101906107459190612e3c565b6111a4565b005b34801561075857600080fd5b50610773600480360381019061076e9190612fae565b6113a5565b005b600061078082611428565b9050919050565b606060008054610796906133be565b80601f01602080910402602001604051908101604052809291908181526020018280546107c2906133be565b801561080f5780601f106107e45761010080835404028352916020019161080f565b820191906000526020600020905b8154815290600101906020018083116107f257829003601f168201915b5050505050905090565b6000610824826114a2565b6004600083815260200190815260200160002060009054906101000a900473ffffffffffffffffffffffffffffffffffffffff169050919050565b600061086a82610c37565b90508073ffffffffffffffffffffffffffffffffffffffff168373ffffffffffffffffffffffffffffffffffffffff16036108da576040517f08c379a00000000000000000000000000000000000000000000000000000000081526004016108d190613461565b60405180910390fd5b8073ffffffffffffffffffffffffffffffffffffffff166108f96114ed565b73ffffffffffffffffffffffffffffffffffffffff1614806109285750610927816109226114ed565b611110565b5b610967576040517f08c379a000000000000000000000000000000000000000000000000000000000815260040161095e906134f3565b60405180910390fd5b61097183836114f5565b505050565b6000610981826115ae565b6109c0576040517f08c379a00000000000000000000000000000000000000000000000000000000081526004016109b79061355f565b60405180910390fd5b600d6000838152602001908152602001600020549050919050565b600047905090565b6000600880549050905090565b610a016109fb6114ed565b8261161a565b610a40576040517f08c379a0000000000000000000000000000000000000000000000000000000008152600401610a37906135f1565b60405180910390fd5b610a4b8383836116af565b505050565b6000610a5b83610d23565b8210610a9c576040517f08c379a0000000000000000000000000000000000000000000000000000000008152600401610a9390613683565b60405180910390fd5b600660008473ffffffffffffffffffffffffffffffffffffffff1673ffffffffffffffffffffffffffffffffffffffff168152602001908152602001600020600083815260200190815260200160002054905092915050565b610b1083838360405180602001604052806000815250610ff6565b505050565b610b26610b206114ed565b8261161a565b610b65576040517f08c379a0000000000000000000000000000000000000000000000000000000008152600401610b5c906135f1565b60405180910390fd5b610b6e81611915565b50565b600e6020528060005260406000206000915090505481565b6000610b936109e3565b8210610bd4576040517f08c379a0000000000000000000000000000000000000000000000000000000008152600401610bcb90613715565b60405180910390fd5b60088281548110610be857610be7613735565b5b90600052602060002001549050919050565b600c602052816000526040600020602052806000526040600020600091509150505481565b600d6020528060005260406000206000915090505481565b6000806002600084815260200190815260200160002060009054906101000a900473ffffffffffffffffffffffffffffffffffffffff169050600073ffffffffffffffffffffffffffffffffffffffff168173ffffffffffffffffffffffffffffffffffffffff1603610cdf576040517f08c379a0000000000000000000000000000000000000000000000000000000008152600401610cd6906137b0565b60405180910390fd5b80915050919050565b6000600e600083815260200190815260200160002054600d600084815260200190815260200160002054610d1c919061382e565b9050919050565b60008073ffffffffffffffffffffffffffffffffffffffff168273ffffffffffffffffffffffffffffffffffffffff1603610d93576040517f08c379a0000000000000000000000000000000000000000000000000000000008152600401610d8a906138d1565b60405180910390fd5b600360008373ffffffffffffffffffffffffffffffffffffffff1673ffffffffffffffffffffffffffffffffffffffff168152602001908152602001600020549050919050565b610de2611921565b610dec600061199f565b565b6000600b60009054906101000a900473ffffffffffffffffffffffffffffffffffffffff16905090565b610e21816115ae565b610e60576040517f08c379a0000000000000000000000000000000000000000000000000000000008152600401610e579061355f565b60405180910390fd5b610e6981611a65565b50565b606060018054610e7b906133be565b80601f0160208091040260200160405190810160405280929190818152602001828054610ea7906133be565b8015610ef45780601f10610ec957610100808354040283529160200191610ef4565b820191906000526020600020905b815481529060010190602001808311610ed757829003601f168201915b5050505050905090565b610f07826115ae565b610f46576040517f08c379a0000000000000000000000000000000000000000000000000000000008152600401610f3d9061355f565b60405180910390fd5b610f503383611a9e565b610f8f576040517f08c379a0000000000000000000000000000000000000000000000000000000008152600401610f869061393d565b60405180910390fd5b60008111610fd2576040517f08c379a0000000000000000000000000000000000000000000000000000000008152600401610fc9906139a9565b60405180910390fd5b610fdc8282611ae4565b5050565b610ff2610feb6114ed565b8383611b00565b5050565b6110076110016114ed565b8361161a565b611046576040517f08c379a000000000000000000000000000000000000000000000000000000000815260040161103d906135f1565b60405180910390fd5b61105284848484611c6c565b50505050565b606434101561109c576040517f08c379a000000000000000000000000000000000000000000000000000000000815260040161109390613a3b565b60405180910390fd5b60006110a8600f611cc8565b90506110b4600f611cd6565b6110be8482611cec565b6110c88184611d0a565b34600d60008381526020019081526020016000208190555081600e60008381526020019081526020016000208190555050505050565b606061110982611d77565b9050919050565b6000600560008473ffffffffffffffffffffffffffffffffffffffff1673ffffffffffffffffffffffffffffffffffffffff16815260200190815260200160002060008373ffffffffffffffffffffffffffffffffffffffff1673ffffffffffffffffffffffffffffffffffffffff16815260200190815260200160002060009054906101000a900460ff16905092915050565b6111ad816115ae565b6111ec576040517f08c379a00000000000000000000000000000000000000000000000000000000081526004016111e39061355f565b60405180910390fd5b6000600c60003373ffffffffffffffffffffffffffffffffffffffff1673ffffffffffffffffffffffffffffffffffffffff1681526020019081526020016000206000838152602001908152602001600020541461127f576040517f08c379a000000000000000000000000000000000000000000000000000000000815260040161127690613aa7565b60405180910390fd5b6000600e600083815260200190815260200160002054600d6000848152602001908152602001600020546112b3919061382e565b905080600d600084815260200190815260200160002054101561130b576040517f08c379a000000000000000000000000000000000000000000000000000000000815260040161130290613b39565b60405180910390fd5b6113153382611e89565b80600d6000848152602001908152602001600020546113349190613b59565b600d6000848152602001908152602001600020819055506001600c60003373ffffffffffffffffffffffffffffffffffffffff1673ffffffffffffffffffffffffffffffffffffffff1681526020019081526020016000206000848152602001908152602001600020819055505050565b6113ad611921565b600073ffffffffffffffffffffffffffffffffffffffff168173ffffffffffffffffffffffffffffffffffffffff160361141c576040517f08c379a000000000000000000000000000000000000000000000000000000000815260040161141390613bff565b60405180910390fd5b6114258161199f565b50565b60007f780e9d63000000000000000000000000000000000000000000000000000000007bffffffffffffffffffffffffffffffffffffffffffffffffffffffff1916827bffffffffffffffffffffffffffffffffffffffffffffffffffffffff1916148061149b575061149a82611f7d565b5b9050919050565b6114ab816115ae565b6114ea576040517f08c379a00000000000000000000000000000000000000000000000000000000081526004016114e1906137b0565b60405180910390fd5b50565b600033905090565b816004600083815260200190815260200160002060006101000a81548173ffffffffffffffffffffffffffffffffffffffff021916908373ffffffffffffffffffffffffffffffffffffffff160217905550808273ffffffffffffffffffffffffffffffffffffffff1661156883610c37565b73ffffffffffffffffffffffffffffffffffffffff167f8c5be1e5ebec7d5bd14f71427d1e84f3dd0314c0f7b2291e5b200ac8c7c3b92560405160405180910390a45050565b60008073ffffffffffffffffffffffffffffffffffffffff166002600084815260200190815260200160002060009054906101000a900473ffffffffffffffffffffffffffffffffffffffff1673ffffffffffffffffffffffffffffffffffffffff1614159050919050565b60008061162683610c37565b90508073ffffffffffffffffffffffffffffffffffffffff168473ffffffffffffffffffffffffffffffffffffffff16148061166857506116678185611110565b5b806116a657508373ffffffffffffffffffffffffffffffffffffffff1661168e84610819565b73ffffffffffffffffffffffffffffffffffffffff16145b91505092915050565b8273ffffffffffffffffffffffffffffffffffffffff166116cf82610c37565b73ffffffffffffffffffffffffffffffffffffffff1614611725576040517f08c379a000000000000000000000000000000000000000000000000000000000815260040161171c90613c91565b60405180910390fd5b600073ffffffffffffffffffffffffffffffffffffffff168273ffffffffffffffffffffffffffffffffffffffff1603611794576040517f08c379a000000000000000000000000000000000000000000000000000000000815260040161178b90613d23565b60405180910390fd5b61179f83838361205f565b6117aa6000826114f5565b6001600360008573ffffffffffffffffffffffffffffffffffffffff1673ffffffffffffffffffffffffffffffffffffffff16815260200190815260200160002060008282546117fa9190613b59565b925050819055506001600360008473ffffffffffffffffffffffffffffffffffffffff1673ffffffffffffffffffffffffffffffffffffffff16815260200190815260200160002060008282546118519190613d43565b92505081905550816002600083815260200190815260200160002060006101000a81548173ffffffffffffffffffffffffffffffffffffffff021916908373ffffffffffffffffffffffffffffffffffffffff160217905550808273ffffffffffffffffffffffffffffffffffffffff168473ffffffffffffffffffffffffffffffffffffffff167fddf252ad1be2c89b69c2b068fc378daa952ba7f163c4a11628f55a4df523b3ef60405160405180910390a461191083838361206f565b505050565b61191e81612074565b50565b6119296114ed565b73ffffffffffffffffffffffffffffffffffffffff16611947610dee565b73ffffffffffffffffffffffffffffffffffffffff161461199d576040517f08c379a000000000000000000000000000000000000000000000000000000000815260040161199490613dc3565b60405180910390fd5b565b6000600b60009054906101000a900473ffffffffffffffffffffffffffffffffffffffff16905081600b60006101000a81548173ffffffffffffffffffffffffffffffffffffffff021916908373ffffffffffffffffffffffffffffffffffffffff1602179055508173ffffffffffffffffffffffffffffffffffffffff168173ffffffffffffffffffffffffffffffffffffffff167f8be0079c531659141344cd1fd0a4f28419497f9722a3daafe3b4186f6b6457e060405160405180910390a35050565b34600d600083815260200190815260200160002054611a849190613d43565b600d60008381526020019081526020016000208190555050565b600080611aaa83610c37565b90508073ffffffffffffffffffffffffffffffffffffffff168473ffffffffffffffffffffffffffffffffffffffff161491505092915050565b80600e6000848152602001908152602001600020819055505050565b8173ffffffffffffffffffffffffffffffffffffffff168373ffffffffffffffffffffffffffffffffffffffff1603611b6e576040517f08c379a0000000000000000000000000000000000000000000000000000000008152600401611b6590613e2f565b60405180910390fd5b80600560008573ffffffffffffffffffffffffffffffffffffffff1673ffffffffffffffffffffffffffffffffffffffff16815260200190815260200160002060008473ffffffffffffffffffffffffffffffffffffffff1673ffffffffffffffffffffffffffffffffffffffff16815260200190815260200160002060006101000a81548160ff0219169083151502179055508173ffffffffffffffffffffffffffffffffffffffff168373ffffffffffffffffffffffffffffffffffffffff167f17307eab39ab6107e8899845ad3d59bd9653f200f220920489ca2b5937696c3183604051611c5f9190612d39565b60405180910390a3505050565b611c778484846116af565b611c83848484846120c7565b611cc2576040517f08c379a0000000000000000000000000000000000000000000000000000000008152600401611cb990613ec1565b60405180910390fd5b50505050565b600081600001549050919050565b6001816000016000828254019250508190555050565b611d0682826040518060200160405280600081525061224e565b5050565b611d13826115ae565b611d52576040517f08c379a0000000000000000000000000000000000000000000000000000000008152600401611d4990613f53565b60405180910390fd5b80600a60008481526020019081526020016000209081611d72919061411f565b505050565b6060611d82826114a2565b6000600a60008481526020019081526020016000208054611da2906133be565b80601f0160208091040260200160405190810160405280929190818152602001828054611dce906133be565b8015611e1b5780601f10611df057610100808354040283529160200191611e1b565b820191906000526020600020905b815481529060010190602001808311611dfe57829003601f168201915b505050505090506000611e2c6122a9565b90506000815103611e41578192505050611e84565b600082511115611e76578082604051602001611e5e92919061422d565b60405160208183030381529060405292505050611e84565b611e7f846122c0565b925050505b919050565b80471015611ecc576040517f08c379a0000000000000000000000000000000000000000000000000000000008152600401611ec39061429d565b60405180910390fd5b60008273ffffffffffffffffffffffffffffffffffffffff1682604051611ef2906142ee565b60006040518083038185875af1925050503d8060008114611f2f576040519150601f19603f3d011682016040523d82523d6000602084013e611f34565b606091505b5050905080611f78576040517f08c379a0000000000000000000000000000000000000000000000000000000008152600401611f6f90614375565b60405180910390fd5b505050565b60007f80ac58cd000000000000000000000000000000000000000000000000000000007bffffffffffffffffffffffffffffffffffffffffffffffffffffffff1916827bffffffffffffffffffffffffffffffffffffffffffffffffffffffff1916148061204857507f5b5e139f000000000000000000000000000000000000000000000000000000007bffffffffffffffffffffffffffffffffffffffffffffffffffffffff1916827bffffffffffffffffffffffffffffffffffffffffffffffffffffffff1916145b80612058575061205782612328565b5b9050919050565b61206a838383612392565b505050565b505050565b61207d816124a4565b6000600a6000838152602001908152602001600020805461209d906133be565b9050146120c457600a600082815260200190815260200160002060006120c39190612c28565b5b50565b60006120e88473ffffffffffffffffffffffffffffffffffffffff166125c1565b15612241578373ffffffffffffffffffffffffffffffffffffffff1663150b7a026121116114ed565b8786866040518563ffffffff1660e01b815260040161213394939291906143ea565b6020604051808303816000875af192505050801561216f57506040513d601f19601f8201168201806040525081019061216c919061444b565b60015b6121f1573d806000811461219f576040519150601f19603f3d011682016040523d82523d6000602084013e6121a4565b606091505b5060008151036121e9576040517f08c379a00000000000000000000000000000000000000000000000000000000081526004016121e090613ec1565b60405180910390fd5b805181602001fd5b63150b7a0260e01b7bffffffffffffffffffffffffffffffffffffffffffffffffffffffff1916817bffffffffffffffffffffffffffffffffffffffffffffffffffffffff191614915050612246565b600190505b949350505050565b61225883836125e4565b61226560008484846120c7565b6122a4576040517f08c379a000000000000000000000000000000000000000000000000000000000815260040161229b90613ec1565b60405180910390fd5b505050565b606060405180602001604052806000815250905090565b60606122cb826114a2565b60006122d56122a9565b905060008151116122f55760405180602001604052806000815250612320565b806122ff846127bd565b60405160200161231092919061422d565b6040516020818303038152906040525b915050919050565b60007f01ffc9a7000000000000000000000000000000000000000000000000000000007bffffffffffffffffffffffffffffffffffffffffffffffffffffffff1916827bffffffffffffffffffffffffffffffffffffffffffffffffffffffff1916149050919050565b61239d83838361291d565b600073ffffffffffffffffffffffffffffffffffffffff168373ffffffffffffffffffffffffffffffffffffffff16036123df576123da81612922565b61241e565b8173ffffffffffffffffffffffffffffffffffffffff168373ffffffffffffffffffffffffffffffffffffffff161461241d5761241c838261296b565b5b5b600073ffffffffffffffffffffffffffffffffffffffff168273ffffffffffffffffffffffffffffffffffffffff16036124605761245b81612ad8565b61249f565b8273ffffffffffffffffffffffffffffffffffffffff168273ffffffffffffffffffffffffffffffffffffffff161461249e5761249d8282612ba9565b5b5b505050565b60006124af82610c37565b90506124bd8160008461205f565b6124c86000836114f5565b6001600360008373ffffffffffffffffffffffffffffffffffffffff1673ffffffffffffffffffffffffffffffffffffffff16815260200190815260200160002060008282546125189190613b59565b925050819055506002600083815260200190815260200160002060006101000a81549073ffffffffffffffffffffffffffffffffffffffff021916905581600073ffffffffffffffffffffffffffffffffffffffff168273ffffffffffffffffffffffffffffffffffffffff167fddf252ad1be2c89b69c2b068fc378daa952ba7f163c4a11628f55a4df523b3ef60405160405180910390a46125bd8160008461206f565b5050565b6000808273ffffffffffffffffffffffffffffffffffffffff163b119050919050565b600073ffffffffffffffffffffffffffffffffffffffff168273ffffffffffffffffffffffffffffffffffffffff1603612653576040517f08c379a000000000000000000000000000000000000000000000000000000000815260040161264a906144c4565b60405180910390fd5b61265c816115ae565b1561269c576040517f08c379a000000000000000000000000000000000000000000000000000000000815260040161269390614530565b60405180910390fd5b6126a86000838361205f565b6001600360008473ffffffffffffffffffffffffffffffffffffffff1673ffffffffffffffffffffffffffffffffffffffff16815260200190815260200160002060008282546126f89190613d43565b92505081905550816002600083815260200190815260200160002060006101000a81548173ffffffffffffffffffffffffffffffffffffffff021916908373ffffffffffffffffffffffffffffffffffffffff160217905550808273ffffffffffffffffffffffffffffffffffffffff16600073ffffffffffffffffffffffffffffffffffffffff167fddf252ad1be2c89b69c2b068fc378daa952ba7f163c4a11628f55a4df523b3ef60405160405180910390a46127b96000838361206f565b5050565b606060008203612804576040518060400160405280600181526020017f30000000000000000000000000000000000000000000000000000000000000008152509050612918565b600082905060005b6000821461283657808061281f90614550565b915050600a8261282f919061382e565b915061280c565b60008167ffffffffffffffff81111561285257612851613091565b5b6040519080825280601f01601f1916602001820160405280156128845781602001600182028036833780820191505090505b5090505b600085146129115760018261289d9190613b59565b9150600a856128ac9190614598565b60306128b89190613d43565b60f81b8183815181106128ce576128cd613735565b5b60200101907effffffffffffffffffffffffffffffffffffffffffffffffffffffffffffff1916908160001a905350600a8561290a919061382e565b9450612888565b8093505050505b919050565b505050565b6008805490506009600083815260200190815260200160002081905550600881908060018154018082558091505060019003906000526020600020016000909190919091505550565b6000600161297884610d23565b6129829190613b59565b9050600060076000848152602001908152602001600020549050818114612a67576000600660008673ffffffffffffffffffffffffffffffffffffffff1673ffffffffffffffffffffffffffffffffffffffff168152602001908152602001600020600084815260200190815260200160002054905080600660008773ffffffffffffffffffffffffffffffffffffffff1673ffffffffffffffffffffffffffffffffffffffff168152602001908152602001600020600084815260200190815260200160002081905550816007600083815260200190815260200160002081905550505b6007600084815260200190815260200160002060009055600660008573ffffffffffffffffffffffffffffffffffffffff1673ffffffffffffffffffffffffffffffffffffffff16815260200190815260200160002060008381526020019081526020016000206000905550505050565b60006001600880549050612aec9190613b59565b9050600060096000848152602001908152602001600020549050600060088381548110612b1c57612b1b613735565b5b906000526020600020015490508060088381548110612b3e57612b3d613735565b5b906000526020600020018190555081600960008381526020019081526020016000208190555060096000858152602001908152602001600020600090556008805480612b8d57612b8c6145c9565b5b6001900381819060005260206000200160009055905550505050565b6000612bb483610d23565b905081600660008573ffffffffffffffffffffffffffffffffffffffff1673ffffffffffffffffffffffffffffffffffffffff168152602001908152602001600020600083815260200190815260200160002081905550806007600084815260200190815260200160002081905550505050565b508054612c34906133be565b6000825580601f10612c465750612c65565b601f016020900490600052602060002090810190612c649190612c68565b5b50565b5b80821115612c81576000816000905550600101612c69565b5090565b6000604051905090565b600080fd5b600080fd5b60007fffffffff0000000000000000000000000000000000000000000000000000000082169050919050565b612cce81612c99565b8114612cd957600080fd5b50565b600081359050612ceb81612cc5565b92915050565b600060208284031215612d0757612d06612c8f565b5b6000612d1584828501612cdc565b91505092915050565b60008115159050919050565b612d3381612d1e565b82525050565b6000602082019050612d4e6000830184612d2a565b92915050565b600081519050919050565b600082825260208201905092915050565b60005b83811015612d8e578082015181840152602081019050612d73565b60008484015250505050565b6000601f19601f8301169050919050565b6000612db682612d54565b612dc08185612d5f565b9350612dd0818560208601612d70565b612dd981612d9a565b840191505092915050565b60006020820190508181036000830152612dfe8184612dab565b905092915050565b6000819050919050565b612e1981612e06565b8114612e2457600080fd5b50565b600081359050612e3681612e10565b92915050565b600060208284031215612e5257612e51612c8f565b5b6000612e6084828501612e27565b91505092915050565b600073ffffffffffffffffffffffffffffffffffffffff82169050919050565b6000612e9482612e69565b9050919050565b612ea481612e89565b82525050565b6000602082019050612ebf6000830184612e9b565b92915050565b612ece81612e89565b8114612ed957600080fd5b50565b600081359050612eeb81612ec5565b92915050565b60008060408385031215612f0857612f07612c8f565b5b6000612f1685828601612edc565b9250506020612f2785828601612e27565b9150509250929050565b612f3a81612e06565b82525050565b6000602082019050612f556000830184612f31565b92915050565b600080600060608486031215612f7457612f73612c8f565b5b6000612f8286828701612edc565b9350506020612f9386828701612edc565b9250506040612fa486828701612e27565b9150509250925092565b600060208284031215612fc457612fc3612c8f565b5b6000612fd284828501612edc565b91505092915050565b60008060408385031215612ff257612ff1612c8f565b5b600061300085828601612e27565b925050602061301185828601612e27565b9150509250929050565b61302481612d1e565b811461302f57600080fd5b50565b6000813590506130418161301b565b92915050565b6000806040838503121561305e5761305d612c8f565b5b600061306c85828601612edc565b925050602061307d85828601613032565b9150509250929050565b600080fd5b600080fd5b7f4e487b7100000000000000000000000000000000000000000000000000000000600052604160045260246000fd5b6130c982612d9a565b810181811067ffffffffffffffff821117156130e8576130e7613091565b5b80604052505050565b60006130fb612c85565b905061310782826130c0565b919050565b600067ffffffffffffffff82111561312757613126613091565b5b61313082612d9a565b9050602081019050919050565b82818337600083830152505050565b600061315f61315a8461310c565b6130f1565b90508281526020810184848401111561317b5761317a61308c565b5b61318684828561313d565b509392505050565b600082601f8301126131a3576131a2613087565b5b81356131b384826020860161314c565b91505092915050565b600080600080608085870312156131d6576131d5612c8f565b5b60006131e487828801612edc565b94505060206131f587828801612edc565b935050604061320687828801612e27565b925050606085013567ffffffffffffffff81111561322757613226612c94565b5b6132338782880161318e565b91505092959194509250565b600067ffffffffffffffff82111561325a57613259613091565b5b61326382612d9a565b9050602081019050919050565b600061328361327e8461323f565b6130f1565b90508281526020810184848401111561329f5761329e61308c565b5b6132aa84828561313d565b509392505050565b600082601f8301126132c7576132c6613087565b5b81356132d7848260208601613270565b91505092915050565b6000806000606084860312156132f9576132f8612c8f565b5b600061330786828701612edc565b935050602084013567ffffffffffffffff81111561332857613327612c94565b5b613334868287016132b2565b925050604061334586828701612e27565b9150509250925092565b6000806040838503121561336657613365612c8f565b5b600061337485828601612edc565b925050602061338585828601612edc565b9150509250929050565b7f4e487b7100000000000000000000000000000000000000000000000000000000600052602260045260246000fd5b600060028204905060018216806133d657607f821691505b6020821081036133e9576133e861338f565b5b50919050565b7f4552433732313a20617070726f76616c20746f2063757272656e74206f776e6560008201527f7200000000000000000000000000000000000000000000000000000000000000602082015250565b600061344b602183612d5f565b9150613456826133ef565b604082019050919050565b6000602082019050818103600083015261347a8161343e565b9050919050565b7f4552433732313a20617070726f76652063616c6c6572206973206e6f7420746f60008201527f6b656e206f776e6572206e6f7220617070726f76656420666f7220616c6c0000602082015250565b60006134dd603e83612d5f565b91506134e882613481565b604082019050919050565b6000602082019050818103600083015261350c816134d0565b9050919050565b7f546f6b656e206e6f742065786973747300000000000000000000000000000000600082015250565b6000613549601083612d5f565b915061355482613513565b602082019050919050565b600060208201905081810360008301526135788161353c565b9050919050565b7f4552433732313a2063616c6c6572206973206e6f7420746f6b656e206f776e6560008201527f72206e6f7220617070726f766564000000000000000000000000000000000000602082015250565b60006135db602e83612d5f565b91506135e68261357f565b604082019050919050565b6000602082019050818103600083015261360a816135ce565b9050919050565b7f455243373231456e756d657261626c653a206f776e657220696e646578206f7560008201527f74206f6620626f756e6473000000000000000000000000000000000000000000602082015250565b600061366d602b83612d5f565b915061367882613611565b604082019050919050565b6000602082019050818103600083015261369c81613660565b9050919050565b7f455243373231456e756d657261626c653a20676c6f62616c20696e646578206f60008201527f7574206f6620626f756e64730000000000000000000000000000000000000000602082015250565b60006136ff602c83612d5f565b915061370a826136a3565b604082019050919050565b6000602082019050818103600083015261372e816136f2565b9050919050565b7f4e487b7100000000000000000000000000000000000000000000000000000000600052603260045260246000fd5b7f4552433732313a20696e76616c696420746f6b656e2049440000000000000000600082015250565b600061379a601883612d5f565b91506137a582613764565b602082019050919050565b600060208201905081810360008301526137c98161378d565b9050919050565b7f4e487b7100000000000000000000000000000000000000000000000000000000600052601260045260246000fd5b7f4e487b7100000000000000000000000000000000000000000000000000000000600052601160045260246000fd5b600061383982612e06565b915061384483612e06565b925082613854576138536137d0565b5b828204905092915050565b7f4552433732313a2061646472657373207a65726f206973206e6f74206120766160008201527f6c6964206f776e65720000000000000000000000000000000000000000000000602082015250565b60006138bb602983612d5f565b91506138c68261385f565b604082019050919050565b600060208201905081810360008301526138ea816138ae565b9050919050565b7f43616c6c6572206973206e6f7420746f6b656e206f776e657200000000000000600082015250565b6000613927601983612d5f565b9150613932826138f1565b602082019050919050565b600060208201905081810360008301526139568161391a565b9050919050565b7f4e756d206d7573742062652067726561746572207468616e2030000000000000600082015250565b6000613993601a83612d5f565b915061399e8261395d565b602082019050919050565b600060208201905081810360008301526139c281613986565b9050919050565b7f736166654d696e74206e656564732074782076616c7565206d6f72652074686160008201527f6e20313030207765690000000000000000000000000000000000000000000000602082015250565b6000613a25602983612d5f565b9150613a30826139c9565b604082019050919050565b60006020820190508181036000830152613a5481613a18565b9050919050565b7f5468697320746f6b656e20697320616c72656164792077697468647261776564600082015250565b6000613a91602083612d5f565b9150613a9c82613a5b565b602082019050919050565b60006020820190508181036000830152613ac081613a84565b9050919050565b7f4e6f7420656e6f7567682066756e647320696e2074686520746f6b656e2e206460008201527f6f6e617465207265717569726564000000000000000000000000000000000000602082015250565b6000613b23602e83612d5f565b9150613b2e82613ac7565b604082019050919050565b60006020820190508181036000830152613b5281613b16565b9050919050565b6000613b6482612e06565b9150613b6f83612e06565b9250828203905081811115613b8757613b866137ff565b5b92915050565b7f4f776e61626c653a206e6577206f776e657220697320746865207a65726f206160008201527f6464726573730000000000000000000000000000000000000000000000000000602082015250565b6000613be9602683612d5f565b9150613bf482613b8d565b604082019050919050565b60006020820190508181036000830152613c1881613bdc565b9050919050565b7f4552433732313a207472616e736665722066726f6d20696e636f72726563742060008201527f6f776e6572000000000000000000000000000000000000000000000000000000602082015250565b6000613c7b602583612d5f565b9150613c8682613c1f565b604082019050919050565b60006020820190508181036000830152613caa81613c6e565b9050919050565b7f4552433732313a207472616e7366657220746f20746865207a65726f2061646460008201527f7265737300000000000000000000000000000000000000000000000000000000602082015250565b6000613d0d602483612d5f565b9150613d1882613cb1565b604082019050919050565b60006020820190508181036000830152613d3c81613d00565b9050919050565b6000613d4e82612e06565b9150613d5983612e06565b9250828201905080821115613d7157613d706137ff565b5b92915050565b7f4f776e61626c653a2063616c6c6572206973206e6f7420746865206f776e6572600082015250565b6000613dad602083612d5f565b9150613db882613d77565b602082019050919050565b60006020820190508181036000830152613ddc81613da0565b9050919050565b7f4552433732313a20617070726f766520746f2063616c6c657200000000000000600082015250565b6000613e19601983612d5f565b9150613e2482613de3565b602082019050919050565b60006020820190508181036000830152613e4881613e0c565b9050919050565b7f4552433732313a207472616e7366657220746f206e6f6e20455243373231526560008201527f63656976657220696d706c656d656e7465720000000000000000000000000000602082015250565b6000613eab603283612d5f565b9150613eb682613e4f565b604082019050919050565b60006020820190508181036000830152613eda81613e9e565b9050919050565b7f45524337323155524953746f726167653a2055524920736574206f66206e6f6e60008201527f6578697374656e7420746f6b656e000000000000000000000000000000000000602082015250565b6000613f3d602e83612d5f565b9150613f4882613ee1565b604082019050919050565b60006020820190508181036000830152613f6c81613f30565b9050919050565b60008190508160005260206000209050919050565b60006020601f8301049050919050565b600082821b905092915050565b600060088302613fd57fffffffffffffffffffffffffffffffffffffffffffffffffffffffffffffffff82613f98565b613fdf8683613f98565b95508019841693508086168417925050509392505050565b6000819050919050565b600061401c61401761401284612e06565b613ff7565b612e06565b9050919050565b6000819050919050565b61403683614001565b61404a61404282614023565b848454613fa5565b825550505050565b600090565b61405f614052565b61406a81848461402d565b505050565b5b8181101561408e57614083600082614057565b600181019050614070565b5050565b601f8211156140d3576140a481613f73565b6140ad84613f88565b810160208510156140bc578190505b6140d06140c885613f88565b83018261406f565b50505b505050565b600082821c905092915050565b60006140f6600019846008026140d8565b1980831691505092915050565b600061410f83836140e5565b9150826002028217905092915050565b61412882612d54565b67ffffffffffffffff81111561414157614140613091565b5b61414b82546133be565b614156828285614092565b600060209050601f8311600181146141895760008415614177578287015190505b6141818582614103565b8655506141e9565b601f19841661419786613f73565b60005b828110156141bf5784890151825560018201915060208501945060208101905061419a565b868310156141dc57848901516141d8601f8916826140e5565b8355505b6001600288020188555050505b505050505050565b600081905092915050565b600061420782612d54565b61421181856141f1565b9350614221818560208601612d70565b80840191505092915050565b600061423982856141fc565b915061424582846141fc565b91508190509392505050565b7f416464726573733a20696e73756666696369656e742062616c616e6365000000600082015250565b6000614287601d83612d5f565b915061429282614251565b602082019050919050565b600060208201905081810360008301526142b68161427a565b9050919050565b600081905092915050565b50565b60006142d86000836142bd565b91506142e3826142c8565b600082019050919050565b60006142f9826142cb565b9150819050919050565b7f416464726573733a20756e61626c6520746f2073656e642076616c75652c207260008201527f6563697069656e74206d61792068617665207265766572746564000000000000602082015250565b600061435f603a83612d5f565b915061436a82614303565b604082019050919050565b6000602082019050818103600083015261438e81614352565b9050919050565b600081519050919050565b600082825260208201905092915050565b60006143bc82614395565b6143c681856143a0565b93506143d6818560208601612d70565b6143df81612d9a565b840191505092915050565b60006080820190506143ff6000830187612e9b565b61440c6020830186612e9b565b6144196040830185612f31565b818103606083015261442b81846143b1565b905095945050505050565b60008151905061444581612cc5565b92915050565b60006020828403121561446157614460612c8f565b5b600061446f84828501614436565b91505092915050565b7f4552433732313a206d696e7420746f20746865207a65726f2061646472657373600082015250565b60006144ae602083612d5f565b91506144b982614478565b602082019050919050565b600060208201905081810360008301526144dd816144a1565b9050919050565b7f4552433732313a20746f6b656e20616c7265616479206d696e74656400000000600082015250565b600061451a601c83612d5f565b9150614525826144e4565b602082019050919050565b600060208201905081810360008301526145498161450d565b9050919050565b600061455b82612e06565b91507fffffffffffffffffffffffffffffffffffffffffffffffffffffffffffffffff820361458d5761458c6137ff565b5b600182019050919050565b60006145a382612e06565b91506145ae83612e06565b9250826145be576145bd6137d0565b5b828206905092915050565b7f4e487b7100000000000000000000000000000000000000000000000000000000600052603160045260246000fdfea2646970667358221220c516a62112c353956957f3d0867d8f0381148e775cd90511a738de9d9680bca864736f6c63430008110033",
  "linkReferences": {},
  "deployedLinkReferences": {}
}