{
  "_format": "hh-sol-artifact-1",
  "contractName": "EvangeryptToken",
  "sourceName": "contracts/EvangeryptToken.sol",
  "abi": [
    {
      "inputs": [],
      "stateMutability": "nonpayable",
      "type": "constructor"
    },
    {
      "anonymous": false,
      "inputs": [
        {
          "indexed": true,
          "internalType": "address",
          "name": "owner",
          "type": "address"
        },
        {
          "indexed": true,
          "internalType": "address",
          "name": "approved",
          "type": "address"
        },
        {
          "indexed": true,
          "internalType": "uint256",
          "name": "tokenId",
          "type": "uint256"
        }
      ],
      "name": "Approval",
      "type": "event"
    },
    {
      "anonymous": false,
      "inputs": [
        {
          "indexed": true,
          "internalType": "address",
          "name": "owner",
          "type": "address"
        },
        {
          "indexed": true,
          "internalType": "address",
          "name": "operator",
          "type": "address"
        },
        {
          "indexed": false,
          "internalType": "bool",
          "name": "approved",
          "type": "bool"
        }
      ],
      "name": "ApprovalForAll",
      "type": "event"
    },
    {
      "anonymous": false,
      "inputs": [
        {
          "indexed": true,
          "internalType": "address",
          "name": "previousOwner",
          "type": "address"
        },
        {
          "indexed": true,
          "internalType": "address",
          "name": "newOwner",
          "type": "address"
        }
      ],
      "name": "OwnershipTransferred",
      "type": "event"
    },
    {
      "anonymous": false,
      "inputs": [
        {
          "indexed": true,
          "internalType": "address",
          "name": "from",
          "type": "address"
        },
        {
          "indexed": true,
          "internalType": "address",
          "name": "to",
          "type": "address"
        },
        {
          "indexed": true,
          "internalType": "uint256",
          "name": "tokenId",
          "type": "uint256"
        }
      ],
      "name": "Transfer",
      "type": "event"
    },
    {
      "inputs": [
        {
          "internalType": "address",
          "name": "to",
          "type": "address"
        },
        {
          "internalType": "uint256",
          "name": "tokenId",
          "type": "uint256"
        }
      ],
      "name": "approve",
      "outputs": [],
      "stateMutability": "nonpayable",
      "type": "function"
    },
    {
      "inputs": [
        {
          "internalType": "address",
          "name": "owner",
          "type": "address"
        }
      ],
      "name": "balanceOf",
      "outputs": [
        {
          "internalType": "uint256",
          "name": "",
          "type": "uint256"
        }
      ],
      "stateMutability": "view",
      "type": "function"
    },
    {
      "inputs": [
        {
          "internalType": "uint256",
          "name": "",
          "type": "uint256"
        }
      ],
      "name": "balancePerToken",
      "outputs": [
        {
          "internalType": "uint256",
          "name": "",
          "type": "uint256"
        }
      ],
      "stateMutability": "view",
      "type": "function"
    },
    {
      "inputs": [
        {
          "internalType": "uint256",
          "name": "tokenId",
          "type": "uint256"
        }
      ],
      "name": "burn",
      "outputs": [],
      "stateMutability": "nonpayable",
      "type": "function"
    },
    {
      "inputs": [
        {
          "internalType": "uint256",
          "name": "",
          "type": "uint256"
        }
      ],
      "name": "distributeNumPerToken",
      "outputs": [
        {
          "internalType": "uint256",
          "name": "",
          "type": "uint256"
        }
      ],
      "stateMutability": "view",
      "type": "function"
    },
    {
      "inputs": [
        {
          "internalType": "uint256",
          "name": "tokenId",
          "type": "uint256"
        }
      ],
      "name": "donateToToken",
      "outputs": [],
      "stateMutability": "payable",
      "type": "function"
    },
    {
      "inputs": [
        {
          "internalType": "uint256",
          "name": "tokenId",
          "type": "uint256"
        }
      ],
      "name": "estimateEarn",
      "outputs": [
        {
          "internalType": "uint256",
          "name": "",
          "type": "uint256"
        }
      ],
      "stateMutability": "view",
      "type": "function"
    },
    {
      "inputs": [
        {
          "internalType": "uint256",
          "name": "tokenId",
          "type": "uint256"
        }
      ],
      "name": "getApproved",
      "outputs": [
        {
          "internalType": "address",
          "name": "",
          "type": "address"
        }
      ],
      "stateMutability": "view",
      "type": "function"
    },
    {
      "inputs": [],
      "name": "getBalance",
      "outputs": [
        {
          "internalType": "uint256",
          "name": "",
          "type": "uint256"
        }
      ],
      "stateMutability": "view",
      "type": "function"
    },
    {
      "inputs": [
        {
          "internalType": "uint256",
          "name": "tokenId",
          "type": "uint256"
        }
      ],
      "name": "getBalanceOfToken",
      "outputs": [
        {
          "internalType": "uint256",
          "name": "",
          "type": "uint256"
        }
      ],
      "stateMutability": "view",
      "type": "function"
    },
    {
      "inputs": [
        {
          "internalType": "address",
          "name": "owner",
          "type": "address"
        },
        {
          "internalType": "address",
          "name": "operator",
          "type": "address"
        }
      ],
      "name": "isApprovedForAll",
      "outputs": [
        {
          "internalType": "bool",
          "name": "",
          "type": "bool"
        }
      ],
      "stateMutability": "view",
      "type": "function"
    },
    {
      "inputs": [
        {
          "internalType": "address",
          "name": "",
          "type": "address"
        },
        {
          "internalType": "uint256",
          "name": "",
          "type": "uint256"
        }
      ],
      "name": "lockTimeOfToken",
      "outputs": [
        {
          "internalType": "uint256",
          "name": "",
          "type": "uint256"
        }
      ],
      "stateMutability": "view",
      "type": "function"
    },
    {
      "inputs": [],
      "name": "name",
      "outputs": [
        {
          "internalType": "string",
          "name": "",
          "type": "string"
        }
      ],
      "stateMutability": "view",
      "type": "function"
    },
    {
      "inputs": [],
      "name": "owner",
      "outputs": [
        {
          "internalType": "address",
          "name": "",
          "type": "address"
        }
      ],
      "stateMutability": "view",
      "type": "function"
    },
    {
      "inputs": [
        {
          "internalType": "uint256",
          "name": "tokenId",
          "type": "uint256"
        }
      ],
      "name": "ownerOf",
      "outputs": [
        {
          "internalType": "address",
          "name": "",
          "type": "address"
        }
      ],
      "stateMutability": "view",
      "type": "function"
    },
    {
      "inputs": [],
      "name": "renounceOwnership",
      "outputs": [],
      "stateMutability": "nonpayable",
      "type": "function"
    },
    {
      "inputs": [
        {
          "internalType": "address",
          "name": "to",
          "type": "address"
        },
        {
          "internalType": "string",
          "name": "uri",
          "type": "string"
        }
      ],
      "name": "safeMint",
      "outputs": [],
      "stateMutability": "payable",
      "type": "function"
    },
    {
      "inputs": [
        {
          "internalType": "address",
          "name": "from",
          "type": "address"
        },
        {
          "internalType": "address",
          "name": "to",
          "type": "address"
        },
        {
          "internalType": "uint256",
          "name": "tokenId",
          "type": "uint256"
        }
      ],
      "name": "safeTransferFrom",
      "outputs": [],
      "stateMutability": "nonpayable",
      "type": "function"
    },
    {
      "inputs": [
        {
          "internalType": "address",
          "name": "from",
          "type": "address"
        },
        {
          "internalType": "address",
          "name": "to",
          "type": "address"
        },
        {
          "internalType": "uint256",
          "name": "tokenId",
          "type": "uint256"
        },
        {
          "internalType": "bytes",
          "name": "data",
          "type": "bytes"
        }
      ],
      "name": "safeTransferFrom",
      "outputs": [],
      "stateMutability": "nonpayable",
      "type": "function"
    },
    {
      "inputs": [
        {
          "internalType": "address",
          "name": "operator",
          "type": "address"
        },
        {
          "internalType": "bool",
          "name": "approved",
          "type": "bool"
        }
      ],
      "name": "setApprovalForAll",
      "outputs": [],
      "stateMutability": "nonpayable",
      "type": "function"
    },
    {
      "inputs": [
        {
          "internalType": "uint256",
          "name": "tokenId",
          "type": "uint256"
        },
        {
          "internalType": "uint256",
          "name": "num",
          "type": "uint256"
        }
      ],
      "name": "setDistoributeNum",
      "outputs": [],
      "stateMutability": "nonpayable",
      "type": "function"
    },
    {
      "inputs": [
        {
          "internalType": "bytes4",
          "name": "interfaceId",
          "type": "bytes4"
        }
      ],
      "name": "supportsInterface",
      "outputs": [
        {
          "internalType": "bool",
          "name": "",
          "type": "bool"
        }
      ],
      "stateMutability": "view",
      "type": "function"
    },
    {
      "inputs": [],
      "name": "symbol",
      "outputs": [
        {
          "internalType": "string",
          "name": "",
          "type": "string"
        }
      ],
      "stateMutability": "view",
      "type": "function"
    },
    {
      "inputs": [
        {
          "internalType": "uint256",
          "name": "index",
          "type": "uint256"
        }
      ],
      "name": "tokenByIndex",
      "outputs": [
        {
          "internalType": "uint256",
          "name": "",
          "type": "uint256"
        }
      ],
      "stateMutability": "view",
      "type": "function"
    },
    {
      "inputs": [
        {
          "internalType": "address",
          "name": "owner",
          "type": "address"
        },
        {
          "internalType": "uint256",
          "name": "index",
          "type": "uint256"
        }
      ],
      "name": "tokenOfOwnerByIndex",
      "outputs": [
        {
          "internalType": "uint256",
          "name": "",
          "type": "uint256"
        }
      ],
      "stateMutability": "view",
      "type": "function"
    },
    {
      "inputs": [
        {
          "internalType": "uint256",
          "name": "tokenId",
          "type": "uint256"
        }
      ],
      "name": "tokenURI",
      "outputs": [
        {
          "internalType": "string",
          "name": "",
          "type": "string"
        }
      ],
      "stateMutability": "view",
      "type": "function"
    },
    {
      "inputs": [],
      "name": "totalSupply",
      "outputs": [
        {
          "internalType": "uint256",
          "name": "",
          "type": "uint256"
        }
      ],
      "stateMutability": "view",
      "type": "function"
    },
    {
      "inputs": [
        {
          "internalType": "address",
          "name": "from",
          "type": "address"
        },
        {
          "internalType": "address",
          "name": "to",
          "type": "address"
        },
        {
          "internalType": "uint256",
          "name": "tokenId",
          "type": "uint256"
        }
      ],
      "name": "transferFrom",
      "outputs": [],
      "stateMutability": "nonpayable",
      "type": "function"
    },
    {
      "inputs": [
        {
          "internalType": "address",
          "name": "newOwner",
          "type": "address"
        }
      ],
      "name": "transferOwnership",
      "outputs": [],
      "stateMutability": "nonpayable",
      "type": "function"
    },
    {
      "inputs": [
        {
          "internalType": "uint256",
          "name": "tokenId",
          "type": "uint256"
        }
      ],
      "name": "withdrawFromToken",
      "outputs": [],
      "stateMutability": "payable",
      "type": "function"
    }
  ],
  "bytecode": "0x60806040523480156200001157600080fd5b506040518060400160405280600f81526020017f4576616e676572797074546f6b656e00000000000000000000000000000000008152506040518060400160405280600381526020017f455654000000000000000000000000000000000000000000000000000000000081525081600090816200008f919062000412565b508060019081620000a1919062000412565b505050620000c4620000b8620000ca60201b60201c565b620000d260201b60201c565b620004f9565b600033905090565b6000600b60009054906101000a900473ffffffffffffffffffffffffffffffffffffffff16905081600b60006101000a81548173ffffffffffffffffffffffffffffffffffffffff021916908373ffffffffffffffffffffffffffffffffffffffff1602179055508173ffffffffffffffffffffffffffffffffffffffff168173ffffffffffffffffffffffffffffffffffffffff167f8be0079c531659141344cd1fd0a4f28419497f9722a3daafe3b4186f6b6457e060405160405180910390a35050565b600081519050919050565b7f4e487b7100000000000000000000000000000000000000000000000000000000600052604160045260246000fd5b7f4e487b7100000000000000000000000000000000000000000000000000000000600052602260045260246000fd5b600060028204905060018216806200021a57607f821691505b60208210810362000230576200022f620001d2565b5b50919050565b60008190508160005260206000209050919050565b60006020601f8301049050919050565b600082821b905092915050565b6000600883026200029a7fffffffffffffffffffffffffffffffffffffffffffffffffffffffffffffffff826200025b565b620002a686836200025b565b95508019841693508086168417925050509392505050565b6000819050919050565b6000819050919050565b6000620002f3620002ed620002e784620002be565b620002c8565b620002be565b9050919050565b6000819050919050565b6200030f83620002d2565b620003276200031e82620002fa565b84845462000268565b825550505050565b600090565b6200033e6200032f565b6200034b81848462000304565b505050565b5b8181101562000373576200036760008262000334565b60018101905062000351565b5050565b601f821115620003c2576200038c8162000236565b62000397846200024b565b81016020851015620003a7578190505b620003bf620003b6856200024b565b83018262000350565b50505b505050565b600082821c905092915050565b6000620003e760001984600802620003c7565b1980831691505092915050565b6000620004028383620003d4565b9150826002028217905092915050565b6200041d8262000198565b67ffffffffffffffff811115620004395762000438620001a3565b5b62000445825462000201565b6200045282828562000377565b600060209050601f8311600181146200048a576000841562000475578287015190505b620004818582620003f4565b865550620004f1565b601f1984166200049a8662000236565b60005b82811015620004c4578489015182556001820191506020850194506020810190506200049d565b86831015620004e45784890151620004e0601f891682620003d4565b8355505b6001600288020188555050505b505050505050565b61465480620005096000396000f3fe6080604052600436106101cd5760003560e01c806368e58a2a116100f7578063a186089611610095578063d204c45e11610064578063d204c45e146106d7578063e985e9c5146106f3578063eb981fea14610730578063f2fde38b1461074c576101cd565b8063a18608961461061f578063a22cb46514610648578063b88d4fde14610671578063c87b56dd1461069a576101cd565b8063715018a6116100d1578063715018a6146105965780638da5cb5b146105ad57806390e8e64b146105d857806395d89b41146105f4576101cd565b806368e58a2a146104df5780636cd232291461051c57806370a0823114610559576101cd565b806323b872dd1161016f5780634420c8701161013e5780634420c870146103eb5780634f6ccce7146104285780635e33404c146104655780636352211e146104a2576101cd565b806323b872dd146103335780632f745c591461035c57806342842e0e1461039957806342966c68146103c2576101cd565b8063095ea7b3116101ab578063095ea7b3146102775780630f185936146102a057806312065fe0146102dd57806318160ddd14610308576101cd565b806301ffc9a7146101d257806306fdde031461020f578063081812fc1461023a575b600080fd5b3480156101de57600080fd5b506101f960048036038101906101f49190612d04565b610775565b6040516102069190612d4c565b60405180910390f35b34801561021b57600080fd5b50610224610787565b6040516102319190612df7565b60405180910390f35b34801561024657600080fd5b50610261600480360381019061025c9190612e4f565b610819565b60405161026e9190612ebd565b60405180910390f35b34801561028357600080fd5b5061029e60048036038101906102999190612f04565b61085f565b005b3480156102ac57600080fd5b506102c760048036038101906102c29190612e4f565b610976565b6040516102d49190612f53565b60405180910390f35b3480156102e957600080fd5b506102f26109db565b6040516102ff9190612f53565b60405180910390f35b34801561031457600080fd5b5061031d6109e3565b60405161032a9190612f53565b60405180910390f35b34801561033f57600080fd5b5061035a60048036038101906103559190612f6e565b6109f0565b005b34801561036857600080fd5b50610383600480360381019061037e9190612f04565b610a50565b6040516103909190612f53565b60405180910390f35b3480156103a557600080fd5b506103c060048036038101906103bb9190612f6e565b610af5565b005b3480156103ce57600080fd5b506103e960048036038101906103e49190612e4f565b610b15565b005b3480156103f757600080fd5b50610412600480360381019061040d9190612e4f565b610b71565b60405161041f9190612f53565b60405180910390f35b34801561043457600080fd5b5061044f600480360381019061044a9190612e4f565b610b89565b60405161045c9190612f53565b60405180910390f35b34801561047157600080fd5b5061048c60048036038101906104879190612e4f565b610bfa565b6040516104999190612f53565b60405180910390f35b3480156104ae57600080fd5b506104c960048036038101906104c49190612e4f565b610c12565b6040516104d69190612ebd565b60405180910390f35b3480156104eb57600080fd5b5061050660048036038101906105019190612f04565b610cc3565b6040516105139190612f53565b60405180910390f35b34801561052857600080fd5b50610543600480360381019061053e9190612e4f565b610ce8565b6040516105509190612f53565b60405180910390f35b34801561056557600080fd5b50610580600480360381019061057b9190612fc1565b610d23565b60405161058d9190612f53565b60405180910390f35b3480156105a257600080fd5b506105ab610dda565b005b3480156105b957600080fd5b506105c2610dee565b6040516105cf9190612ebd565b60405180910390f35b6105f260048036038101906105ed9190612e4f565b610e18565b005b34801561060057600080fd5b50610609610e6c565b6040516106169190612df7565b60405180910390f35b34801561062b57600080fd5b5061064660048036038101906106419190612fee565b610efe565b005b34801561065457600080fd5b5061066f600480360381019061066a919061305a565b610fe0565b005b34801561067d57600080fd5b50610698600480360381019061069391906131cf565b610ff6565b005b3480156106a657600080fd5b506106c160048036038101906106bc9190612e4f565b611058565b6040516106ce9190612df7565b60405180910390f35b6106f160048036038101906106ec91906132f3565b61106a565b005b3480156106ff57600080fd5b5061071a6004803603810190610715919061334f565b611117565b6040516107279190612d4c565b60405180910390f35b61074a60048036038101906107459190612e4f565b6111ab565b005b34801561075857600080fd5b50610773600480360381019061076e9190612fc1565b6113b8565b005b60006107808261143b565b9050919050565b606060008054610796906133be565b80601f01602080910402602001604051908101604052809291908181526020018280546107c2906133be565b801561080f5780601f106107e45761010080835404028352916020019161080f565b820191906000526020600020905b8154815290600101906020018083116107f257829003601f168201915b5050505050905090565b6000610824826114b5565b6004600083815260200190815260200160002060009054906101000a900473ffffffffffffffffffffffffffffffffffffffff169050919050565b600061086a82610c12565b90508073ffffffffffffffffffffffffffffffffffffffff168373ffffffffffffffffffffffffffffffffffffffff16036108da576040517f08c379a00000000000000000000000000000000000000000000000000000000081526004016108d190613461565b60405180910390fd5b8073ffffffffffffffffffffffffffffffffffffffff166108f9611500565b73ffffffffffffffffffffffffffffffffffffffff161480610928575061092781610922611500565b611117565b5b610967576040517f08c379a000000000000000000000000000000000000000000000000000000000815260040161095e906134f3565b60405180910390fd5b6109718383611508565b505050565b6000610981826115c1565b6109c0576040517f08c379a00000000000000000000000000000000000000000000000000000000081526004016109b79061355f565b60405180910390fd5b600d6000838152602001908152602001600020549050919050565b600047905090565b6000600880549050905090565b610a016109fb611500565b8261162d565b610a40576040517f08c379a0000000000000000000000000000000000000000000000000000000008152600401610a37906135f1565b60405180910390fd5b610a4b8383836116c2565b505050565b6000610a5b83610d23565b8210610a9c576040517f08c379a0000000000000000000000000000000000000000000000000000000008152600401610a9390613683565b60405180910390fd5b600660008473ffffffffffffffffffffffffffffffffffffffff1673ffffffffffffffffffffffffffffffffffffffff168152602001908152602001600020600083815260200190815260200160002054905092915050565b610b1083838360405180602001604052806000815250610ff6565b505050565b610b26610b20611500565b8261162d565b610b65576040517f08c379a0000000000000000000000000000000000000000000000000000000008152600401610b5c906135f1565b60405180910390fd5b610b6e81611928565b50565b600e6020528060005260406000206000915090505481565b6000610b936109e3565b8210610bd4576040517f08c379a0000000000000000000000000000000000000000000000000000000008152600401610bcb90613715565b60405180910390fd5b60088281548110610be857610be7613735565b5b90600052602060002001549050919050565b600d6020528060005260406000206000915090505481565b6000806002600084815260200190815260200160002060009054906101000a900473ffffffffffffffffffffffffffffffffffffffff169050600073ffffffffffffffffffffffffffffffffffffffff168173ffffffffffffffffffffffffffffffffffffffff1603610cba576040517f08c379a0000000000000000000000000000000000000000000000000000000008152600401610cb1906137b0565b60405180910390fd5b80915050919050565b600c602052816000526040600020602052806000526040600020600091509150505481565b6000600e600083815260200190815260200160002054600d600084815260200190815260200160002054610d1c919061382e565b9050919050565b60008073ffffffffffffffffffffffffffffffffffffffff168273ffffffffffffffffffffffffffffffffffffffff1603610d93576040517f08c379a0000000000000000000000000000000000000000000000000000000008152600401610d8a906138d1565b60405180910390fd5b600360008373ffffffffffffffffffffffffffffffffffffffff1673ffffffffffffffffffffffffffffffffffffffff168152602001908152602001600020549050919050565b610de2611934565b610dec60006119b2565b565b6000600b60009054906101000a900473ffffffffffffffffffffffffffffffffffffffff16905090565b610e21816115c1565b610e60576040517f08c379a0000000000000000000000000000000000000000000000000000000008152600401610e579061355f565b60405180910390fd5b610e6981611a78565b50565b606060018054610e7b906133be565b80601f0160208091040260200160405190810160405280929190818152602001828054610ea7906133be565b8015610ef45780601f10610ec957610100808354040283529160200191610ef4565b820191906000526020600020905b815481529060010190602001808311610ed757829003601f168201915b5050505050905090565b610f07826115c1565b610f46576040517f08c379a0000000000000000000000000000000000000000000000000000000008152600401610f3d9061355f565b60405180910390fd5b610f503383611ab1565b610f8f576040517f08c379a0000000000000000000000000000000000000000000000000000000008152600401610f869061393d565b60405180910390fd5b60008111610fd2576040517f08c379a0000000000000000000000000000000000000000000000000000000008152600401610fc9906139a9565b60405180910390fd5b610fdc8282611af7565b5050565b610ff2610feb611500565b8383611b13565b5050565b611007611001611500565b8361162d565b611046576040517f08c379a000000000000000000000000000000000000000000000000000000000815260040161103d906135f1565b60405180910390fd5b61105284848484611c7f565b50505050565b606061106382611cdb565b9050919050565b67016345785d8a00003410156110b5576040517f08c379a00000000000000000000000000000000000000000000000000000000081526004016110ac90613a3b565b60405180910390fd5b60006110c1600f611ded565b90506110cd600f611dfb565b6110d78382611e11565b6110e18183611e2f565b34600d6000838152602001908152602001600020819055506064600e600083815260200190815260200160002081905550505050565b6000600560008473ffffffffffffffffffffffffffffffffffffffff1673ffffffffffffffffffffffffffffffffffffffff16815260200190815260200160002060008373ffffffffffffffffffffffffffffffffffffffff1673ffffffffffffffffffffffffffffffffffffffff16815260200190815260200160002060009054906101000a900460ff16905092915050565b6111b4816115c1565b6111f3576040517f08c379a00000000000000000000000000000000000000000000000000000000081526004016111ea9061355f565b60405180910390fd5b600c60003373ffffffffffffffffffffffffffffffffffffffff1673ffffffffffffffffffffffffffffffffffffffff1681526020019081526020016000206000828152602001908152602001600020544211611285576040517f08c379a000000000000000000000000000000000000000000000000000000000815260040161127c90613acd565b60405180910390fd5b6000600e600083815260200190815260200160002054600d6000848152602001908152602001600020546112b9919061382e565b905080600d6000848152602001908152602001600020541015611311576040517f08c379a000000000000000000000000000000000000000000000000000000000815260040161130890613b5f565b60405180910390fd5b61131b3382611e9c565b80600d60008481526020019081526020016000205461133a9190613b7f565b600d600084815260200190815260200160002081905550620d2f00426113609190613bb3565b600c60003373ffffffffffffffffffffffffffffffffffffffff1673ffffffffffffffffffffffffffffffffffffffff1681526020019081526020016000206000848152602001908152602001600020819055505050565b6113c0611934565b600073ffffffffffffffffffffffffffffffffffffffff168173ffffffffffffffffffffffffffffffffffffffff160361142f576040517f08c379a000000000000000000000000000000000000000000000000000000000815260040161142690613c59565b60405180910390fd5b611438816119b2565b50565b60007f780e9d63000000000000000000000000000000000000000000000000000000007bffffffffffffffffffffffffffffffffffffffffffffffffffffffff1916827bffffffffffffffffffffffffffffffffffffffffffffffffffffffff191614806114ae57506114ad82611f90565b5b9050919050565b6114be816115c1565b6114fd576040517f08c379a00000000000000000000000000000000000000000000000000000000081526004016114f4906137b0565b60405180910390fd5b50565b600033905090565b816004600083815260200190815260200160002060006101000a81548173ffffffffffffffffffffffffffffffffffffffff021916908373ffffffffffffffffffffffffffffffffffffffff160217905550808273ffffffffffffffffffffffffffffffffffffffff1661157b83610c12565b73ffffffffffffffffffffffffffffffffffffffff167f8c5be1e5ebec7d5bd14f71427d1e84f3dd0314c0f7b2291e5b200ac8c7c3b92560405160405180910390a45050565b60008073ffffffffffffffffffffffffffffffffffffffff166002600084815260200190815260200160002060009054906101000a900473ffffffffffffffffffffffffffffffffffffffff1673ffffffffffffffffffffffffffffffffffffffff1614159050919050565b60008061163983610c12565b90508073ffffffffffffffffffffffffffffffffffffffff168473ffffffffffffffffffffffffffffffffffffffff16148061167b575061167a8185611117565b5b806116b957508373ffffffffffffffffffffffffffffffffffffffff166116a184610819565b73ffffffffffffffffffffffffffffffffffffffff16145b91505092915050565b8273ffffffffffffffffffffffffffffffffffffffff166116e282610c12565b73ffffffffffffffffffffffffffffffffffffffff1614611738576040517f08c379a000000000000000000000000000000000000000000000000000000000815260040161172f90613ceb565b60405180910390fd5b600073ffffffffffffffffffffffffffffffffffffffff168273ffffffffffffffffffffffffffffffffffffffff16036117a7576040517f08c379a000000000000000000000000000000000000000000000000000000000815260040161179e90613d7d565b60405180910390fd5b6117b2838383612072565b6117bd600082611508565b6001600360008573ffffffffffffffffffffffffffffffffffffffff1673ffffffffffffffffffffffffffffffffffffffff168152602001908152602001600020600082825461180d9190613b7f565b925050819055506001600360008473ffffffffffffffffffffffffffffffffffffffff1673ffffffffffffffffffffffffffffffffffffffff16815260200190815260200160002060008282546118649190613bb3565b92505081905550816002600083815260200190815260200160002060006101000a81548173ffffffffffffffffffffffffffffffffffffffff021916908373ffffffffffffffffffffffffffffffffffffffff160217905550808273ffffffffffffffffffffffffffffffffffffffff168473ffffffffffffffffffffffffffffffffffffffff167fddf252ad1be2c89b69c2b068fc378daa952ba7f163c4a11628f55a4df523b3ef60405160405180910390a4611923838383612082565b505050565b61193181612087565b50565b61193c611500565b73ffffffffffffffffffffffffffffffffffffffff1661195a610dee565b73ffffffffffffffffffffffffffffffffffffffff16146119b0576040517f08c379a00000000000000000000000000000000000000000000000000000000081526004016119a790613de9565b60405180910390fd5b565b6000600b60009054906101000a900473ffffffffffffffffffffffffffffffffffffffff16905081600b60006101000a81548173ffffffffffffffffffffffffffffffffffffffff021916908373ffffffffffffffffffffffffffffffffffffffff1602179055508173ffffffffffffffffffffffffffffffffffffffff168173ffffffffffffffffffffffffffffffffffffffff167f8be0079c531659141344cd1fd0a4f28419497f9722a3daafe3b4186f6b6457e060405160405180910390a35050565b34600d600083815260200190815260200160002054611a979190613bb3565b600d60008381526020019081526020016000208190555050565b600080611abd83610c12565b90508073ffffffffffffffffffffffffffffffffffffffff168473ffffffffffffffffffffffffffffffffffffffff161491505092915050565b80600e6000848152602001908152602001600020819055505050565b8173ffffffffffffffffffffffffffffffffffffffff168373ffffffffffffffffffffffffffffffffffffffff1603611b81576040517f08c379a0000000000000000000000000000000000000000000000000000000008152600401611b7890613e55565b60405180910390fd5b80600560008573ffffffffffffffffffffffffffffffffffffffff1673ffffffffffffffffffffffffffffffffffffffff16815260200190815260200160002060008473ffffffffffffffffffffffffffffffffffffffff1673ffffffffffffffffffffffffffffffffffffffff16815260200190815260200160002060006101000a81548160ff0219169083151502179055508173ffffffffffffffffffffffffffffffffffffffff168373ffffffffffffffffffffffffffffffffffffffff167f17307eab39ab6107e8899845ad3d59bd9653f200f220920489ca2b5937696c3183604051611c729190612d4c565b60405180910390a3505050565b611c8a8484846116c2565b611c96848484846120da565b611cd5576040517f08c379a0000000000000000000000000000000000000000000000000000000008152600401611ccc90613ee7565b60405180910390fd5b50505050565b6060611ce6826114b5565b6000600a60008481526020019081526020016000208054611d06906133be565b80601f0160208091040260200160405190810160405280929190818152602001828054611d32906133be565b8015611d7f5780601f10611d5457610100808354040283529160200191611d7f565b820191906000526020600020905b815481529060010190602001808311611d6257829003601f168201915b505050505090506000611d90612261565b90506000815103611da5578192505050611de8565b600082511115611dda578082604051602001611dc2929190613f43565b60405160208183030381529060405292505050611de8565b611de384612278565b925050505b919050565b600081600001549050919050565b6001816000016000828254019250508190555050565b611e2b8282604051806020016040528060008152506122e0565b5050565b611e38826115c1565b611e77576040517f08c379a0000000000000000000000000000000000000000000000000000000008152600401611e6e90613fd9565b60405180910390fd5b80600a60008481526020019081526020016000209081611e9791906141a5565b505050565b80471015611edf576040517f08c379a0000000000000000000000000000000000000000000000000000000008152600401611ed6906142c3565b60405180910390fd5b60008273ffffffffffffffffffffffffffffffffffffffff1682604051611f0590614314565b60006040518083038185875af1925050503d8060008114611f42576040519150601f19603f3d011682016040523d82523d6000602084013e611f47565b606091505b5050905080611f8b576040517f08c379a0000000000000000000000000000000000000000000000000000000008152600401611f829061439b565b60405180910390fd5b505050565b60007f80ac58cd000000000000000000000000000000000000000000000000000000007bffffffffffffffffffffffffffffffffffffffffffffffffffffffff1916827bffffffffffffffffffffffffffffffffffffffffffffffffffffffff1916148061205b57507f5b5e139f000000000000000000000000000000000000000000000000000000007bffffffffffffffffffffffffffffffffffffffffffffffffffffffff1916827bffffffffffffffffffffffffffffffffffffffffffffffffffffffff1916145b8061206b575061206a8261233b565b5b9050919050565b61207d8383836123a5565b505050565b505050565b612090816124b7565b6000600a600083815260200190815260200160002080546120b0906133be565b9050146120d757600a600082815260200190815260200160002060006120d69190612c3b565b5b50565b60006120fb8473ffffffffffffffffffffffffffffffffffffffff166125d4565b15612254578373ffffffffffffffffffffffffffffffffffffffff1663150b7a02612124611500565b8786866040518563ffffffff1660e01b81526004016121469493929190614410565b6020604051808303816000875af192505050801561218257506040513d601f19601f8201168201806040525081019061217f9190614471565b60015b612204573d80600081146121b2576040519150601f19603f3d011682016040523d82523d6000602084013e6121b7565b606091505b5060008151036121fc576040517f08c379a00000000000000000000000000000000000000000000000000000000081526004016121f390613ee7565b60405180910390fd5b805181602001fd5b63150b7a0260e01b7bffffffffffffffffffffffffffffffffffffffffffffffffffffffff1916817bffffffffffffffffffffffffffffffffffffffffffffffffffffffff191614915050612259565b600190505b949350505050565b606060405180602001604052806000815250905090565b6060612283826114b5565b600061228d612261565b905060008151116122ad57604051806020016040528060008152506122d8565b806122b7846125f7565b6040516020016122c8929190613f43565b6040516020818303038152906040525b915050919050565b6122ea8383612757565b6122f760008484846120da565b612336576040517f08c379a000000000000000000000000000000000000000000000000000000000815260040161232d90613ee7565b60405180910390fd5b505050565b60007f01ffc9a7000000000000000000000000000000000000000000000000000000007bffffffffffffffffffffffffffffffffffffffffffffffffffffffff1916827bffffffffffffffffffffffffffffffffffffffffffffffffffffffff1916149050919050565b6123b0838383612930565b600073ffffffffffffffffffffffffffffffffffffffff168373ffffffffffffffffffffffffffffffffffffffff16036123f2576123ed81612935565b612431565b8173ffffffffffffffffffffffffffffffffffffffff168373ffffffffffffffffffffffffffffffffffffffff16146124305761242f838261297e565b5b5b600073ffffffffffffffffffffffffffffffffffffffff168273ffffffffffffffffffffffffffffffffffffffff16036124735761246e81612aeb565b6124b2565b8273ffffffffffffffffffffffffffffffffffffffff168273ffffffffffffffffffffffffffffffffffffffff16146124b1576124b08282612bbc565b5b5b505050565b60006124c282610c12565b90506124d081600084612072565b6124db600083611508565b6001600360008373ffffffffffffffffffffffffffffffffffffffff1673ffffffffffffffffffffffffffffffffffffffff168152602001908152602001600020600082825461252b9190613b7f565b925050819055506002600083815260200190815260200160002060006101000a81549073ffffffffffffffffffffffffffffffffffffffff021916905581600073ffffffffffffffffffffffffffffffffffffffff168273ffffffffffffffffffffffffffffffffffffffff167fddf252ad1be2c89b69c2b068fc378daa952ba7f163c4a11628f55a4df523b3ef60405160405180910390a46125d081600084612082565b5050565b6000808273ffffffffffffffffffffffffffffffffffffffff163b119050919050565b60606000820361263e576040518060400160405280600181526020017f30000000000000000000000000000000000000000000000000000000000000008152509050612752565b600082905060005b600082146126705780806126599061449e565b915050600a82612669919061382e565b9150612646565b60008167ffffffffffffffff81111561268c5761268b6130a4565b5b6040519080825280601f01601f1916602001820160405280156126be5781602001600182028036833780820191505090505b5090505b6000851461274b576001826126d79190613b7f565b9150600a856126e691906144e6565b60306126f29190613bb3565b60f81b81838151811061270857612707613735565b5b60200101907effffffffffffffffffffffffffffffffffffffffffffffffffffffffffffff1916908160001a905350600a85612744919061382e565b94506126c2565b8093505050505b919050565b600073ffffffffffffffffffffffffffffffffffffffff168273ffffffffffffffffffffffffffffffffffffffff16036127c6576040517f08c379a00000000000000000000000000000000000000000000000000000000081526004016127bd90614563565b60405180910390fd5b6127cf816115c1565b1561280f576040517f08c379a0000000000000000000000000000000000000000000000000000000008152600401612806906145cf565b60405180910390fd5b61281b60008383612072565b6001600360008473ffffffffffffffffffffffffffffffffffffffff1673ffffffffffffffffffffffffffffffffffffffff168152602001908152602001600020600082825461286b9190613bb3565b92505081905550816002600083815260200190815260200160002060006101000a81548173ffffffffffffffffffffffffffffffffffffffff021916908373ffffffffffffffffffffffffffffffffffffffff160217905550808273ffffffffffffffffffffffffffffffffffffffff16600073ffffffffffffffffffffffffffffffffffffffff167fddf252ad1be2c89b69c2b068fc378daa952ba7f163c4a11628f55a4df523b3ef60405160405180910390a461292c60008383612082565b5050565b505050565b6008805490506009600083815260200190815260200160002081905550600881908060018154018082558091505060019003906000526020600020016000909190919091505550565b6000600161298b84610d23565b6129959190613b7f565b9050600060076000848152602001908152602001600020549050818114612a7a576000600660008673ffffffffffffffffffffffffffffffffffffffff1673ffffffffffffffffffffffffffffffffffffffff168152602001908152602001600020600084815260200190815260200160002054905080600660008773ffffffffffffffffffffffffffffffffffffffff1673ffffffffffffffffffffffffffffffffffffffff168152602001908152602001600020600084815260200190815260200160002081905550816007600083815260200190815260200160002081905550505b6007600084815260200190815260200160002060009055600660008573ffffffffffffffffffffffffffffffffffffffff1673ffffffffffffffffffffffffffffffffffffffff16815260200190815260200160002060008381526020019081526020016000206000905550505050565b60006001600880549050612aff9190613b7f565b9050600060096000848152602001908152602001600020549050600060088381548110612b2f57612b2e613735565b5b906000526020600020015490508060088381548110612b5157612b50613735565b5b906000526020600020018190555081600960008381526020019081526020016000208190555060096000858152602001908152602001600020600090556008805480612ba057612b9f6145ef565b5b6001900381819060005260206000200160009055905550505050565b6000612bc783610d23565b905081600660008573ffffffffffffffffffffffffffffffffffffffff1673ffffffffffffffffffffffffffffffffffffffff168152602001908152602001600020600083815260200190815260200160002081905550806007600084815260200190815260200160002081905550505050565b508054612c47906133be565b6000825580601f10612c595750612c78565b601f016020900490600052602060002090810190612c779190612c7b565b5b50565b5b80821115612c94576000816000905550600101612c7c565b5090565b6000604051905090565b600080fd5b600080fd5b60007fffffffff0000000000000000000000000000000000000000000000000000000082169050919050565b612ce181612cac565b8114612cec57600080fd5b50565b600081359050612cfe81612cd8565b92915050565b600060208284031215612d1a57612d19612ca2565b5b6000612d2884828501612cef565b91505092915050565b60008115159050919050565b612d4681612d31565b82525050565b6000602082019050612d616000830184612d3d565b92915050565b600081519050919050565b600082825260208201905092915050565b60005b83811015612da1578082015181840152602081019050612d86565b60008484015250505050565b6000601f19601f8301169050919050565b6000612dc982612d67565b612dd38185612d72565b9350612de3818560208601612d83565b612dec81612dad565b840191505092915050565b60006020820190508181036000830152612e118184612dbe565b905092915050565b6000819050919050565b612e2c81612e19565b8114612e3757600080fd5b50565b600081359050612e4981612e23565b92915050565b600060208284031215612e6557612e64612ca2565b5b6000612e7384828501612e3a565b91505092915050565b600073ffffffffffffffffffffffffffffffffffffffff82169050919050565b6000612ea782612e7c565b9050919050565b612eb781612e9c565b82525050565b6000602082019050612ed26000830184612eae565b92915050565b612ee181612e9c565b8114612eec57600080fd5b50565b600081359050612efe81612ed8565b92915050565b60008060408385031215612f1b57612f1a612ca2565b5b6000612f2985828601612eef565b9250506020612f3a85828601612e3a565b9150509250929050565b612f4d81612e19565b82525050565b6000602082019050612f686000830184612f44565b92915050565b600080600060608486031215612f8757612f86612ca2565b5b6000612f9586828701612eef565b9350506020612fa686828701612eef565b9250506040612fb786828701612e3a565b9150509250925092565b600060208284031215612fd757612fd6612ca2565b5b6000612fe584828501612eef565b91505092915050565b6000806040838503121561300557613004612ca2565b5b600061301385828601612e3a565b925050602061302485828601612e3a565b9150509250929050565b61303781612d31565b811461304257600080fd5b50565b6000813590506130548161302e565b92915050565b6000806040838503121561307157613070612ca2565b5b600061307f85828601612eef565b925050602061309085828601613045565b9150509250929050565b600080fd5b600080fd5b7f4e487b7100000000000000000000000000000000000000000000000000000000600052604160045260246000fd5b6130dc82612dad565b810181811067ffffffffffffffff821117156130fb576130fa6130a4565b5b80604052505050565b600061310e612c98565b905061311a82826130d3565b919050565b600067ffffffffffffffff82111561313a576131396130a4565b5b61314382612dad565b9050602081019050919050565b82818337600083830152505050565b600061317261316d8461311f565b613104565b90508281526020810184848401111561318e5761318d61309f565b5b613199848285613150565b509392505050565b600082601f8301126131b6576131b561309a565b5b81356131c684826020860161315f565b91505092915050565b600080600080608085870312156131e9576131e8612ca2565b5b60006131f787828801612eef565b945050602061320887828801612eef565b935050604061321987828801612e3a565b925050606085013567ffffffffffffffff81111561323a57613239612ca7565b5b613246878288016131a1565b91505092959194509250565b600067ffffffffffffffff82111561326d5761326c6130a4565b5b61327682612dad565b9050602081019050919050565b600061329661329184613252565b613104565b9050828152602081018484840111156132b2576132b161309f565b5b6132bd848285613150565b509392505050565b600082601f8301126132da576132d961309a565b5b81356132ea848260208601613283565b91505092915050565b6000806040838503121561330a57613309612ca2565b5b600061331885828601612eef565b925050602083013567ffffffffffffffff81111561333957613338612ca7565b5b613345858286016132c5565b9150509250929050565b6000806040838503121561336657613365612ca2565b5b600061337485828601612eef565b925050602061338585828601612eef565b9150509250929050565b7f4e487b7100000000000000000000000000000000000000000000000000000000600052602260045260246000fd5b600060028204905060018216806133d657607f821691505b6020821081036133e9576133e861338f565b5b50919050565b7f4552433732313a20617070726f76616c20746f2063757272656e74206f776e6560008201527f7200000000000000000000000000000000000000000000000000000000000000602082015250565b600061344b602183612d72565b9150613456826133ef565b604082019050919050565b6000602082019050818103600083015261347a8161343e565b9050919050565b7f4552433732313a20617070726f76652063616c6c6572206973206e6f7420746f60008201527f6b656e206f776e6572206e6f7220617070726f76656420666f7220616c6c0000602082015250565b60006134dd603e83612d72565b91506134e882613481565b604082019050919050565b6000602082019050818103600083015261350c816134d0565b9050919050565b7f546f6b656e206e6f742065786973747300000000000000000000000000000000600082015250565b6000613549601083612d72565b915061355482613513565b602082019050919050565b600060208201905081810360008301526135788161353c565b9050919050565b7f4552433732313a2063616c6c6572206973206e6f7420746f6b656e206f776e6560008201527f72206e6f7220617070726f766564000000000000000000000000000000000000602082015250565b60006135db602e83612d72565b91506135e68261357f565b604082019050919050565b6000602082019050818103600083015261360a816135ce565b9050919050565b7f455243373231456e756d657261626c653a206f776e657220696e646578206f7560008201527f74206f6620626f756e6473000000000000000000000000000000000000000000602082015250565b600061366d602b83612d72565b915061367882613611565b604082019050919050565b6000602082019050818103600083015261369c81613660565b9050919050565b7f455243373231456e756d657261626c653a20676c6f62616c20696e646578206f60008201527f7574206f6620626f756e64730000000000000000000000000000000000000000602082015250565b60006136ff602c83612d72565b915061370a826136a3565b604082019050919050565b6000602082019050818103600083015261372e816136f2565b9050919050565b7f4e487b7100000000000000000000000000000000000000000000000000000000600052603260045260246000fd5b7f4552433732313a20696e76616c696420746f6b656e2049440000000000000000600082015250565b600061379a601883612d72565b91506137a582613764565b602082019050919050565b600060208201905081810360008301526137c98161378d565b9050919050565b7f4e487b7100000000000000000000000000000000000000000000000000000000600052601260045260246000fd5b7f4e487b7100000000000000000000000000000000000000000000000000000000600052601160045260246000fd5b600061383982612e19565b915061384483612e19565b925082613854576138536137d0565b5b828204905092915050565b7f4552433732313a2061646472657373207a65726f206973206e6f74206120766160008201527f6c6964206f776e65720000000000000000000000000000000000000000000000602082015250565b60006138bb602983612d72565b91506138c68261385f565b604082019050919050565b600060208201905081810360008301526138ea816138ae565b9050919050565b7f43616c6c6572206973206e6f7420746f6b656e206f776e657200000000000000600082015250565b6000613927601983612d72565b9150613932826138f1565b602082019050919050565b600060208201905081810360008301526139568161391a565b9050919050565b7f4e756d206d7573742062652067726561746572207468616e2030000000000000600082015250565b6000613993601a83612d72565b915061399e8261395d565b602082019050919050565b600060208201905081810360008301526139c281613986565b9050919050565b7f736166654d696e74206e656564732074782076616c7565206d6f72652074686160008201527f6e20302e31204d41544943000000000000000000000000000000000000000000602082015250565b6000613a25602b83612d72565b9150613a30826139c9565b604082019050919050565b60006020820190508181036000830152613a5481613a18565b9050919050565b7f6c6f636b2074696d6520686173206e6f7420657870697265642e20506c65617360008201527f652074727920616761696e206c61746572000000000000000000000000000000602082015250565b6000613ab7603183612d72565b9150613ac282613a5b565b604082019050919050565b60006020820190508181036000830152613ae681613aaa565b9050919050565b7f4e6f7420656e6f7567682066756e647320696e2074686520746f6b656e2e206460008201527f6f6e617465207265717569726564000000000000000000000000000000000000602082015250565b6000613b49602e83612d72565b9150613b5482613aed565b604082019050919050565b60006020820190508181036000830152613b7881613b3c565b9050919050565b6000613b8a82612e19565b9150613b9583612e19565b9250828203905081811115613bad57613bac6137ff565b5b92915050565b6000613bbe82612e19565b9150613bc983612e19565b9250828201905080821115613be157613be06137ff565b5b92915050565b7f4f776e61626c653a206e6577206f776e657220697320746865207a65726f206160008201527f6464726573730000000000000000000000000000000000000000000000000000602082015250565b6000613c43602683612d72565b9150613c4e82613be7565b604082019050919050565b60006020820190508181036000830152613c7281613c36565b9050919050565b7f4552433732313a207472616e736665722066726f6d20696e636f72726563742060008201527f6f776e6572000000000000000000000000000000000000000000000000000000602082015250565b6000613cd5602583612d72565b9150613ce082613c79565b604082019050919050565b60006020820190508181036000830152613d0481613cc8565b9050919050565b7f4552433732313a207472616e7366657220746f20746865207a65726f2061646460008201527f7265737300000000000000000000000000000000000000000000000000000000602082015250565b6000613d67602483612d72565b9150613d7282613d0b565b604082019050919050565b60006020820190508181036000830152613d9681613d5a565b9050919050565b7f4f776e61626c653a2063616c6c6572206973206e6f7420746865206f776e6572600082015250565b6000613dd3602083612d72565b9150613dde82613d9d565b602082019050919050565b60006020820190508181036000830152613e0281613dc6565b9050919050565b7f4552433732313a20617070726f766520746f2063616c6c657200000000000000600082015250565b6000613e3f601983612d72565b9150613e4a82613e09565b602082019050919050565b60006020820190508181036000830152613e6e81613e32565b9050919050565b7f4552433732313a207472616e7366657220746f206e6f6e20455243373231526560008201527f63656976657220696d706c656d656e7465720000000000000000000000000000602082015250565b6000613ed1603283612d72565b9150613edc82613e75565b604082019050919050565b60006020820190508181036000830152613f0081613ec4565b9050919050565b600081905092915050565b6000613f1d82612d67565b613f278185613f07565b9350613f37818560208601612d83565b80840191505092915050565b6000613f4f8285613f12565b9150613f5b8284613f12565b91508190509392505050565b7f45524337323155524953746f726167653a2055524920736574206f66206e6f6e60008201527f6578697374656e7420746f6b656e000000000000000000000000000000000000602082015250565b6000613fc3602e83612d72565b9150613fce82613f67565b604082019050919050565b60006020820190508181036000830152613ff281613fb6565b9050919050565b60008190508160005260206000209050919050565b60006020601f8301049050919050565b600082821b905092915050565b60006008830261405b7fffffffffffffffffffffffffffffffffffffffffffffffffffffffffffffffff8261401e565b614065868361401e565b95508019841693508086168417925050509392505050565b6000819050919050565b60006140a261409d61409884612e19565b61407d565b612e19565b9050919050565b6000819050919050565b6140bc83614087565b6140d06140c8826140a9565b84845461402b565b825550505050565b600090565b6140e56140d8565b6140f08184846140b3565b505050565b5b81811015614114576141096000826140dd565b6001810190506140f6565b5050565b601f8211156141595761412a81613ff9565b6141338461400e565b81016020851015614142578190505b61415661414e8561400e565b8301826140f5565b50505b505050565b600082821c905092915050565b600061417c6000198460080261415e565b1980831691505092915050565b6000614195838361416b565b9150826002028217905092915050565b6141ae82612d67565b67ffffffffffffffff8111156141c7576141c66130a4565b5b6141d182546133be565b6141dc828285614118565b600060209050601f83116001811461420f57600084156141fd578287015190505b6142078582614189565b86555061426f565b601f19841661421d86613ff9565b60005b8281101561424557848901518255600182019150602085019450602081019050614220565b86831015614262578489015161425e601f89168261416b565b8355505b6001600288020188555050505b505050505050565b7f416464726573733a20696e73756666696369656e742062616c616e6365000000600082015250565b60006142ad601d83612d72565b91506142b882614277565b602082019050919050565b600060208201905081810360008301526142dc816142a0565b9050919050565b600081905092915050565b50565b60006142fe6000836142e3565b9150614309826142ee565b600082019050919050565b600061431f826142f1565b9150819050919050565b7f416464726573733a20756e61626c6520746f2073656e642076616c75652c207260008201527f6563697069656e74206d61792068617665207265766572746564000000000000602082015250565b6000614385603a83612d72565b915061439082614329565b604082019050919050565b600060208201905081810360008301526143b481614378565b9050919050565b600081519050919050565b600082825260208201905092915050565b60006143e2826143bb565b6143ec81856143c6565b93506143fc818560208601612d83565b61440581612dad565b840191505092915050565b60006080820190506144256000830187612eae565b6144326020830186612eae565b61443f6040830185612f44565b818103606083015261445181846143d7565b905095945050505050565b60008151905061446b81612cd8565b92915050565b60006020828403121561448757614486612ca2565b5b60006144958482850161445c565b91505092915050565b60006144a982612e19565b91507fffffffffffffffffffffffffffffffffffffffffffffffffffffffffffffffff82036144db576144da6137ff565b5b600182019050919050565b60006144f182612e19565b91506144fc83612e19565b92508261450c5761450b6137d0565b5b828206905092915050565b7f4552433732313a206d696e7420746f20746865207a65726f2061646472657373600082015250565b600061454d602083612d72565b915061455882614517565b602082019050919050565b6000602082019050818103600083015261457c81614540565b9050919050565b7f4552433732313a20746f6b656e20616c7265616479206d696e74656400000000600082015250565b60006145b9601c83612d72565b91506145c482614583565b602082019050919050565b600060208201905081810360008301526145e8816145ac565b9050919050565b7f4e487b7100000000000000000000000000000000000000000000000000000000600052603160045260246000fdfea264697066735822122067a3ca17f75fcadc3fe998072057a1314e85c148d1d91ab23580b9d8e547762a64736f6c63430008110033",
  "linkReferences": {},
  "deployedLinkReferences": {}
}